{
  "contractName": "Catalog",
  "abi": [
    {
      "inputs": [],
      "stateMutability": "nonpayable",
      "type": "constructor"
    },
    {
      "anonymous": false,
      "inputs": [
        {
          "indexed": true,
          "internalType": "address",
          "name": "owner",
          "type": "address"
        },
        {
          "indexed": true,
          "internalType": "address",
          "name": "approved",
          "type": "address"
        },
        {
          "indexed": true,
          "internalType": "uint256",
          "name": "tokenId",
          "type": "uint256"
        }
      ],
      "name": "Approval",
      "type": "event"
    },
    {
      "anonymous": false,
      "inputs": [
        {
          "indexed": true,
          "internalType": "address",
          "name": "owner",
          "type": "address"
        },
        {
          "indexed": true,
          "internalType": "address",
          "name": "operator",
          "type": "address"
        },
        {
          "indexed": false,
          "internalType": "bool",
          "name": "approved",
          "type": "bool"
        }
      ],
      "name": "ApprovalForAll",
      "type": "event"
    },
    {
      "anonymous": false,
      "inputs": [
        {
          "indexed": true,
          "internalType": "address",
          "name": "from",
          "type": "address"
        },
        {
          "indexed": true,
          "internalType": "address",
          "name": "to",
          "type": "address"
        },
        {
          "indexed": true,
          "internalType": "uint256",
          "name": "tokenId",
          "type": "uint256"
        }
      ],
      "name": "Transfer",
      "type": "event"
    },
    {
      "anonymous": false,
      "inputs": [
        {
          "indexed": false,
          "internalType": "address",
          "name": "_owner",
          "type": "address"
        },
        {
          "indexed": false,
          "internalType": "uint256",
          "name": "_id",
          "type": "uint256"
        }
      ],
      "name": "estateAdded",
      "type": "event"
    },
    {
      "anonymous": false,
      "inputs": [
        {
          "indexed": true,
          "internalType": "address",
          "name": "_from",
          "type": "address"
        },
        {
          "indexed": true,
          "internalType": "address",
          "name": "_to",
          "type": "address"
        },
        {
          "indexed": false,
          "internalType": "uint256",
          "name": "_id",
          "type": "uint256"
        }
      ],
      "name": "transactionEmitted",
      "type": "event"
    },
    {
      "inputs": [
        {
          "internalType": "string",
          "name": "",
          "type": "string"
        }
      ],
      "name": "__addressExists",
      "outputs": [
        {
          "internalType": "bool",
          "name": "",
          "type": "bool"
        }
      ],
      "stateMutability": "view",
      "type": "function",
      "constant": true
    },
    {
      "inputs": [],
      "name": "__commissionPt",
      "outputs": [
        {
          "internalType": "uint256",
          "name": "",
          "type": "uint256"
        }
      ],
      "stateMutability": "view",
      "type": "function",
      "constant": true
    },
    {
      "inputs": [],
      "name": "__estateCounter",
      "outputs": [
        {
          "internalType": "uint256",
          "name": "",
          "type": "uint256"
        }
      ],
      "stateMutability": "view",
      "type": "function",
      "constant": true
    },
    {
      "inputs": [
        {
          "internalType": "uint256",
          "name": "",
          "type": "uint256"
        }
      ],
      "name": "__estates",
      "outputs": [
        {
          "internalType": "string",
          "name": "name",
          "type": "string"
        },
        {
          "internalType": "string",
          "name": "postal",
          "type": "string"
        },
        {
          "internalType": "string",
          "name": "description",
          "type": "string"
        }
      ],
      "stateMutability": "view",
      "type": "function",
      "constant": true
    },
    {
      "inputs": [
        {
          "internalType": "uint256",
          "name": "",
          "type": "uint256"
        }
      ],
      "name": "__estatesForSale",
      "outputs": [
        {
          "internalType": "uint256",
          "name": "",
          "type": "uint256"
        }
      ],
      "stateMutability": "view",
      "type": "function",
      "constant": true
    },
    {
      "inputs": [
        {
          "internalType": "address",
          "name": "",
          "type": "address"
        },
        {
          "internalType": "uint256",
          "name": "",
          "type": "uint256"
        }
      ],
      "name": "__ownerEstates",
      "outputs": [
        {
          "internalType": "uint256",
          "name": "",
          "type": "uint256"
        }
      ],
      "stateMutability": "view",
      "type": "function",
      "constant": true
    },
    {
      "inputs": [
        {
          "internalType": "address",
          "name": "to",
          "type": "address"
        },
        {
          "internalType": "uint256",
          "name": "tokenId",
          "type": "uint256"
        }
      ],
      "name": "approve",
      "outputs": [],
      "stateMutability": "nonpayable",
      "type": "function"
    },
    {
      "inputs": [
        {
          "internalType": "address",
          "name": "owner",
          "type": "address"
        }
      ],
      "name": "balanceOf",
      "outputs": [
        {
          "internalType": "uint256",
          "name": "",
          "type": "uint256"
        }
      ],
      "stateMutability": "view",
      "type": "function",
      "constant": true
    },
    {
      "inputs": [],
      "name": "baseURI",
      "outputs": [
        {
          "internalType": "string",
          "name": "",
          "type": "string"
        }
      ],
      "stateMutability": "view",
      "type": "function",
      "constant": true
    },
    {
      "inputs": [
        {
          "internalType": "uint256",
          "name": "tokenId",
          "type": "uint256"
        }
      ],
      "name": "getApproved",
      "outputs": [
        {
          "internalType": "address",
          "name": "",
          "type": "address"
        }
      ],
      "stateMutability": "view",
      "type": "function",
      "constant": true
    },
    {
      "inputs": [
        {
          "internalType": "address",
          "name": "owner",
          "type": "address"
        },
        {
          "internalType": "address",
          "name": "operator",
          "type": "address"
        }
      ],
      "name": "isApprovedForAll",
      "outputs": [
        {
          "internalType": "bool",
          "name": "",
          "type": "bool"
        }
      ],
      "stateMutability": "view",
      "type": "function",
      "constant": true
    },
    {
      "inputs": [],
      "name": "name",
      "outputs": [
        {
          "internalType": "string",
          "name": "",
          "type": "string"
        }
      ],
      "stateMutability": "view",
      "type": "function",
      "constant": true
    },
    {
      "inputs": [
        {
          "internalType": "uint256",
          "name": "tokenId",
          "type": "uint256"
        }
      ],
      "name": "ownerOf",
      "outputs": [
        {
          "internalType": "address",
          "name": "",
          "type": "address"
        }
      ],
      "stateMutability": "view",
      "type": "function",
      "constant": true
    },
    {
      "inputs": [
        {
          "internalType": "address",
          "name": "from",
          "type": "address"
        },
        {
          "internalType": "address",
          "name": "to",
          "type": "address"
        },
        {
          "internalType": "uint256",
          "name": "tokenId",
          "type": "uint256"
        }
      ],
      "name": "safeTransferFrom",
      "outputs": [],
      "stateMutability": "nonpayable",
      "type": "function"
    },
    {
      "inputs": [
        {
          "internalType": "address",
          "name": "from",
          "type": "address"
        },
        {
          "internalType": "address",
          "name": "to",
          "type": "address"
        },
        {
          "internalType": "uint256",
          "name": "tokenId",
          "type": "uint256"
        },
        {
          "internalType": "bytes",
          "name": "_data",
          "type": "bytes"
        }
      ],
      "name": "safeTransferFrom",
      "outputs": [],
      "stateMutability": "nonpayable",
      "type": "function"
    },
    {
      "inputs": [
        {
          "internalType": "address",
          "name": "operator",
          "type": "address"
        },
        {
          "internalType": "bool",
          "name": "approved",
          "type": "bool"
        }
      ],
      "name": "setApprovalForAll",
      "outputs": [],
      "stateMutability": "nonpayable",
      "type": "function"
    },
    {
      "inputs": [
        {
          "internalType": "bytes4",
          "name": "interfaceId",
          "type": "bytes4"
        }
      ],
      "name": "supportsInterface",
      "outputs": [
        {
          "internalType": "bool",
          "name": "",
          "type": "bool"
        }
      ],
      "stateMutability": "view",
      "type": "function",
      "constant": true
    },
    {
      "inputs": [],
      "name": "symbol",
      "outputs": [
        {
          "internalType": "string",
          "name": "",
          "type": "string"
        }
      ],
      "stateMutability": "view",
      "type": "function",
      "constant": true
    },
    {
      "inputs": [
        {
          "internalType": "uint256",
          "name": "index",
          "type": "uint256"
        }
      ],
      "name": "tokenByIndex",
      "outputs": [
        {
          "internalType": "uint256",
          "name": "",
          "type": "uint256"
        }
      ],
      "stateMutability": "view",
      "type": "function",
      "constant": true
    },
    {
      "inputs": [
        {
          "internalType": "address",
          "name": "owner",
          "type": "address"
        },
        {
          "internalType": "uint256",
          "name": "index",
          "type": "uint256"
        }
      ],
      "name": "tokenOfOwnerByIndex",
      "outputs": [
        {
          "internalType": "uint256",
          "name": "",
          "type": "uint256"
        }
      ],
      "stateMutability": "view",
      "type": "function",
      "constant": true
    },
    {
      "inputs": [
        {
          "internalType": "uint256",
          "name": "tokenId",
          "type": "uint256"
        }
      ],
      "name": "tokenURI",
      "outputs": [
        {
          "internalType": "string",
          "name": "",
          "type": "string"
        }
      ],
      "stateMutability": "view",
      "type": "function",
      "constant": true
    },
    {
      "inputs": [],
      "name": "totalSupply",
      "outputs": [
        {
          "internalType": "uint256",
          "name": "",
          "type": "uint256"
        }
      ],
      "stateMutability": "view",
      "type": "function",
      "constant": true
    },
    {
      "inputs": [
        {
          "internalType": "address",
          "name": "from",
          "type": "address"
        },
        {
          "internalType": "address",
          "name": "to",
          "type": "address"
        },
        {
          "internalType": "uint256",
          "name": "tokenId",
          "type": "uint256"
        }
      ],
      "name": "transferFrom",
      "outputs": [],
      "stateMutability": "nonpayable",
      "type": "function"
    },
    {
      "inputs": [
        {
          "internalType": "bool",
          "name": "_available",
          "type": "bool"
        },
        {
          "internalType": "string",
          "name": "_name",
          "type": "string"
        },
        {
          "internalType": "uint256",
          "name": "_price",
          "type": "uint256"
        },
        {
          "internalType": "string",
          "name": "_postal",
          "type": "string"
        },
        {
          "internalType": "string",
          "name": "_description",
          "type": "string"
        },
        {
          "internalType": "string[]",
          "name": "_gallery",
          "type": "string[]"
        }
      ],
      "name": "registerEstate",
      "outputs": [],
      "stateMutability": "nonpayable",
      "type": "function"
    },
    {
      "inputs": [
        {
          "internalType": "uint256",
          "name": "_tokenId",
          "type": "uint256"
        },
        {
          "internalType": "uint256",
          "name": "_price",
          "type": "uint256"
        }
      ],
      "name": "putEstateForSale",
      "outputs": [],
      "stateMutability": "nonpayable",
      "type": "function"
    },
    {
      "inputs": [],
      "name": "isOwnerContract",
      "outputs": [
        {
          "internalType": "address",
          "name": "",
          "type": "address"
        }
      ],
      "stateMutability": "view",
      "type": "function",
      "constant": true
    },
    {
      "inputs": [
        {
          "internalType": "uint256",
          "name": "_commission",
          "type": "uint256"
        }
      ],
      "name": "retrieveCommission",
      "outputs": [
        {
          "internalType": "bool",
          "name": "",
          "type": "bool"
        }
      ],
      "stateMutability": "nonpayable",
      "type": "function"
    },
    {
      "inputs": [],
      "name": "getCommissionPt",
      "outputs": [
        {
          "internalType": "uint256",
          "name": "",
          "type": "uint256"
        }
      ],
      "stateMutability": "view",
      "type": "function",
      "constant": true
    },
    {
      "inputs": [
        {
          "internalType": "uint256",
          "name": "_tokenId",
          "type": "uint256"
        }
      ],
      "name": "removeEstateFromSale",
      "outputs": [],
      "stateMutability": "nonpayable",
      "type": "function"
    },
    {
      "inputs": [
        {
          "internalType": "uint256",
          "name": "_value",
          "type": "uint256"
        }
      ],
      "name": "setCommissionPt",
      "outputs": [],
      "stateMutability": "nonpayable",
      "type": "function"
    },
    {
      "inputs": [
        {
          "internalType": "address",
          "name": "_owner",
          "type": "address"
        }
      ],
      "name": "getOwnerNb",
      "outputs": [
        {
          "internalType": "uint256[]",
          "name": "",
          "type": "uint256[]"
        }
      ],
      "stateMutability": "view",
      "type": "function",
      "constant": true
    },
    {
      "inputs": [
        {
          "internalType": "uint256",
          "name": "_tokenId",
          "type": "uint256"
        }
      ],
      "name": "getEstate",
      "outputs": [
        {
          "internalType": "string",
          "name": "",
          "type": "string"
        },
        {
          "internalType": "string",
          "name": "",
          "type": "string"
        },
        {
          "internalType": "string",
          "name": "",
          "type": "string"
        },
        {
          "internalType": "string[]",
          "name": "",
          "type": "string[]"
        }
      ],
      "stateMutability": "view",
      "type": "function",
      "constant": true
    },
    {
      "inputs": [
        {
          "internalType": "uint256",
          "name": "_tokenId",
          "type": "uint256"
        }
      ],
      "name": "buyEstate",
      "outputs": [
        {
          "internalType": "bool",
          "name": "",
          "type": "bool"
        }
      ],
      "stateMutability": "payable",
      "type": "function",
      "payable": true
    }
  ],
  "bytecode": "0x60806040523480156200001157600080fd5b506040518060400160405280600781526020017f636174616c6f67000000000000000000000000000000000000000000000000008152506040518060400160405280600781526020017f434154414c4f4700000000000000000000000000000000000000000000000000815250620000966301ffc9a760e01b6200016a60201b60201c565b8160069080519060200190620000ae92919062000273565b508060079080519060200190620000c792919062000273565b50620000e06380ac58cd60e01b6200016a60201b60201c565b620000f8635b5e139f60e01b6200016a60201b60201c565b6200011063780e9d6360e01b6200016a60201b60201c565b505033600b60006101000a81548173ffffffffffffffffffffffffffffffffffffffff021916908373ffffffffffffffffffffffffffffffffffffffff1602179055506103e8600a819055506000600c8190555062000329565b63ffffffff60e01b817bffffffffffffffffffffffffffffffffffffffffffffffffffffffff1916141562000207576040517f08c379a000000000000000000000000000000000000000000000000000000000815260040180806020018281038252601c8152602001807f4552433136353a20696e76616c696420696e746572666163652069640000000081525060200191505060405180910390fd5b6001600080837bffffffffffffffffffffffffffffffffffffffffffffffffffffffff19167bffffffffffffffffffffffffffffffffffffffffffffffffffffffff1916815260200190815260200160002060006101000a81548160ff02191690831515021790555050565b828054600181600116156101000203166002900490600052602060002090601f016020900481019282620002ab5760008555620002f7565b82601f10620002c657805160ff1916838001178555620002f7565b82800160010185558215620002f7579182015b82811115620002f6578251825591602001919060010190620002d9565b5b5090506200030691906200030a565b5090565b5b80821115620003255760008160009055506001016200030b565b5090565b614c1e80620003396000396000f3fe6080604052600436106101ee5760003560e01c80636c0360eb1161010d57806393b54a6b116100a0578063b21cfb7f1161006f578063b21cfb7f1461078d578063b88d4fde146107b6578063bbde51ad146107df578063c87b56dd1461080a578063e985e9c514610847576101ee565b806393b54a6b146106d157806395d89b411461070e578063a22cb46514610739578063a91fe3ff14610762576101ee565b8063779ea468116100dc578063779ea46814610600578063786420d11461062b5780638349ac241461066b5780638f41054d14610694576101ee565b80636c0360eb1461052b578063707bad091461055657806370a082311461059357806375c178b7146105d0576101ee565b80631ed965891161018557806342842e0e1161015457806342842e0e1461044957806349565967146104725780634f6ccce7146104b15780636352211e146104ee576101ee565b80631ed965891461039157806323b872dd146103ba5780632f745c59146103e357806333fc306614610420576101ee565b80630fba99fe116101c15780630fba99fe146102c157806318160ddd146102ec5780631a03c210146103175780631d42766e14610354576101ee565b806301ffc9a7146101f357806306fdde0314610230578063081812fc1461025b578063095ea7b314610298575b600080fd5b3480156101ff57600080fd5b5061021a60048036038101906102159190613f29565b610884565b60405161022791906144e9565b60405180910390f35b34801561023c57600080fd5b506102456108eb565b6040516102529190614504565b60405180910390f35b34801561026757600080fd5b50610282600480360381019061027d9190613f93565b61098d565b60405161028f9190614483565b60405180910390f35b3480156102a457600080fd5b506102bf60048036038101906102ba9190613e04565b610a28565b005b3480156102cd57600080fd5b506102d6610b6c565b6040516102e391906146b3565b60405180910390f35b3480156102f857600080fd5b50610301610b76565b60405161030e91906146b3565b60405180910390f35b34801561032357600080fd5b5061033e60048036038101906103399190613f93565b610b87565b60405161034b91906144e9565b60405180910390f35b34801561036057600080fd5b5061037b60048036038101906103769190613f93565b610c8e565b60405161038891906146b3565b60405180910390f35b34801561039d57600080fd5b506103b860048036038101906103b39190613f93565b610ca6565b005b3480156103c657600080fd5b506103e160048036038101906103dc9190613cfe565b610d43565b005b3480156103ef57600080fd5b5061040a60048036038101906104059190613e04565b610db9565b60405161041791906146b3565b60405180910390f35b34801561042c57600080fd5b5061044760048036038101906104429190613f93565b610e14565b005b34801561045557600080fd5b50610470600480360381019061046b9190613cfe565b610f26565b005b34801561047e57600080fd5b5061049960048036038101906104949190613f93565b610f46565b6040516104a893929190614526565b60405180910390f35b3480156104bd57600080fd5b506104d860048036038101906104d39190613f93565b611138565b6040516104e591906146b3565b60405180910390f35b3480156104fa57600080fd5b5061051560048036038101906105109190613f93565b61115b565b6040516105229190614483565b60405180910390f35b34801561053757600080fd5b50610540611192565b60405161054d9190614504565b60405180910390f35b34801561056257600080fd5b5061057d60048036038101906105789190613c70565b611234565b60405161058a91906144c7565b60405180910390f35b34801561059f57600080fd5b506105ba60048036038101906105b59190613c70565b6112cb565b6040516105c791906146b3565b60405180910390f35b6105ea60048036038101906105e59190613f93565b6113a0565b6040516105f791906144e9565b60405180910390f35b34801561060c57600080fd5b506106156116be565b6040516106229190614483565b60405180910390f35b34801561063757600080fd5b50610652600480360381019061064d9190613f93565b6116e8565b6040516106629493929190614572565b60405180910390f35b34801561067757600080fd5b50610692600480360381019061068d9190613fbc565b611a54565b005b3480156106a057600080fd5b506106bb60048036038101906106b69190613e04565b611ba9565b6040516106c891906146b3565b60405180910390f35b3480156106dd57600080fd5b506106f860048036038101906106f39190613f52565b611bda565b60405161070591906144e9565b60405180910390f35b34801561071a57600080fd5b50610723611c10565b6040516107309190614504565b60405180910390f35b34801561074557600080fd5b50610760600480360381019061075b9190613dc8565b611cb2565b005b34801561076e57600080fd5b50610777611e68565b60405161078491906146b3565b60405180910390f35b34801561079957600080fd5b506107b460048036038101906107af9190613e40565b611e6e565b005b3480156107c257600080fd5b506107dd60048036038101906107d89190613d4d565b6120aa565b005b3480156107eb57600080fd5b506107f4612122565b60405161080191906146b3565b60405180910390f35b34801561081657600080fd5b50610831600480360381019061082c9190613f93565b612128565b60405161083e9190614504565b60405180910390f35b34801561085357600080fd5b5061086e60048036038101906108699190613cc2565b6123f9565b60405161087b91906144e9565b60405180910390f35b6000806000837bffffffffffffffffffffffffffffffffffffffffffffffffffffffff19167bffffffffffffffffffffffffffffffffffffffffffffffffffffffff1916815260200190815260200160002060009054906101000a900460ff169050919050565b606060068054600181600116156101000203166002900480601f0160208091040260200160405190810160405280929190818152602001828054600181600116156101000203166002900480156109835780601f1061095857610100808354040283529160200191610983565b820191906000526020600020905b81548152906001019060200180831161096657829003601f168201915b5050505050905090565b60006109988261248d565b6109ed576040517f08c379a000000000000000000000000000000000000000000000000000000000815260040180806020018281038252602c815260200180614b13602c913960400191505060405180910390fd5b6004600083815260200190815260200160002060009054906101000a900473ffffffffffffffffffffffffffffffffffffffff169050919050565b6000610a338261115b565b90508073ffffffffffffffffffffffffffffffffffffffff168373ffffffffffffffffffffffffffffffffffffffff161415610aba576040517f08c379a0000000000000000000000000000000000000000000000000000000008152600401808060200182810382526021815260200180614b976021913960400191505060405180910390fd5b8073ffffffffffffffffffffffffffffffffffffffff16610ad96124aa565b73ffffffffffffffffffffffffffffffffffffffff161480610b085750610b0781610b026124aa565b6123f9565b5b610b5d576040517f08c379a0000000000000000000000000000000000000000000000000000000008152600401808060200182810382526038815260200180614a666038913960400191505060405180910390fd5b610b6783836124b2565b505050565b6000600a54905090565b6000610b82600261256b565b905090565b6000600b60009054906101000a900473ffffffffffffffffffffffffffffffffffffffff1673ffffffffffffffffffffffffffffffffffffffff163373ffffffffffffffffffffffffffffffffffffffff1614610c19576040517f08c379a0000000000000000000000000000000000000000000000000000000008152600401610c1090614653565b60405180910390fd5b60003373ffffffffffffffffffffffffffffffffffffffff1683604051610c3f9061446e565b60006040518083038185875af1925050503d8060008114610c7c576040519150601f19603f3d011682016040523d82523d6000602084013e610c81565b606091505b5050905080915050919050565b600e6020528060005260406000206000915090505481565b600b60009054906101000a900473ffffffffffffffffffffffffffffffffffffffff1673ffffffffffffffffffffffffffffffffffffffff163373ffffffffffffffffffffffffffffffffffffffff1614610d36576040517f08c379a0000000000000000000000000000000000000000000000000000000008152600401610d2d906145d3565b60405180910390fd5b60648102600a8190555050565b610d54610d4e6124aa565b82612580565b610da9576040517f08c379a0000000000000000000000000000000000000000000000000000000008152600401808060200182810382526031815260200180614bb86031913960400191505060405180910390fd5b610db4838383612674565b505050565b6000610e0c82600160008673ffffffffffffffffffffffffffffffffffffffff1673ffffffffffffffffffffffffffffffffffffffff1681526020019081526020016000206128b790919063ffffffff16565b905092915050565b3373ffffffffffffffffffffffffffffffffffffffff163073ffffffffffffffffffffffffffffffffffffffff16636352211e836040518263ffffffff1660e01b8152600401610e6491906146b3565b60206040518083038186803b158015610e7c57600080fd5b505afa158015610e90573d6000803e3d6000fd5b505050506040513d601f19601f82011682018060405250810190610eb49190613c99565b73ffffffffffffffffffffffffffffffffffffffff1614610f0a576040517f08c379a0000000000000000000000000000000000000000000000000000000008152600401610f0190614633565b60405180910390fd5b6000600e60008381526020019081526020016000208190555050565b610f41838383604051806020016040528060008152506120aa565b505050565b600d602052806000526040600020600091509050806000018054600181600116156101000203166002900480601f016020809104026020016040519081016040528092919081815260200182805460018160011615610100020316600290048015610ff25780601f10610fc757610100808354040283529160200191610ff2565b820191906000526020600020905b815481529060010190602001808311610fd557829003601f168201915b505050505090806001018054600181600116156101000203166002900480601f0160208091040260200160405190810160405280929190818152602001828054600181600116156101000203166002900480156110905780601f1061106557610100808354040283529160200191611090565b820191906000526020600020905b81548152906001019060200180831161107357829003601f168201915b505050505090806002018054600181600116156101000203166002900480601f01602080910402602001604051908101604052809291908181526020018280546001816001161561010002031660029004801561112e5780601f106111035761010080835404028352916020019161112e565b820191906000526020600020905b81548152906001019060200180831161111157829003601f168201915b5050505050905083565b60008061114f8360026128d190919063ffffffff16565b50905080915050919050565b600061118b82604051806060016040528060298152602001614ac86029913960026128fd9092919063ffffffff16565b9050919050565b606060098054600181600116156101000203166002900480601f01602080910402602001604051908101604052809291908181526020018280546001816001161561010002031660029004801561122a5780601f106111ff5761010080835404028352916020019161122a565b820191906000526020600020905b81548152906001019060200180831161120d57829003601f168201915b5050505050905090565b6060601060008373ffffffffffffffffffffffffffffffffffffffff1673ffffffffffffffffffffffffffffffffffffffff1681526020019081526020016000208054806020026020016040519081016040528092919081815260200182805480156112bf57602002820191906000526020600020905b8154815260200190600101908083116112ab575b50505050509050919050565b60008073ffffffffffffffffffffffffffffffffffffffff168273ffffffffffffffffffffffffffffffffffffffff161415611352576040517f08c379a000000000000000000000000000000000000000000000000000000000815260040180806020018281038252602a815260200180614a9e602a913960400191505060405180910390fd5b611399600160008473ffffffffffffffffffffffffffffffffffffffff1673ffffffffffffffffffffffffffffffffffffffff16815260200190815260200160002061291c565b9050919050565b60006113ab8261248d565b6113ea576040517f08c379a00000000000000000000000000000000000000000000000000000000081526004016113e1906145f3565b60405180910390fd5b6000600e60008481526020019081526020016000205411611440576040517f08c379a000000000000000000000000000000000000000000000000000000000815260040161143790614613565b60405180910390fd5b6000600e600084815260200190815260200160002054905060006114638461115b565b9050813410156114a8576040517f08c379a000000000000000000000000000000000000000000000000000000000815260040161149f90614673565b60405180910390fd5b6000612710600a548402816114b957fe5b04905060008273ffffffffffffffffffffffffffffffffffffffff168285036040516114e49061446e565b60006040518083038185875af1925050503d8060008114611521576040519150601f19603f3d011682016040523d82523d6000602084013e611526565b606091505b5050905061153386612931565b61153d3387612a6b565b601060008473ffffffffffffffffffffffffffffffffffffffff1673ffffffffffffffffffffffffffffffffffffffff168152602001908152602001600020868154811061158757fe5b9060005260206000200160009055601060003373ffffffffffffffffffffffffffffffffffffffff1673ffffffffffffffffffffffffffffffffffffffff1681526020019081526020016000208690806001815401808255809150506001900390600052602060002001600090919091909150558334111561164d573373ffffffffffffffffffffffffffffffffffffffff166108fc8534039081150290604051600060405180830381858888f1935050505015801561164b573d6000803e3d6000fd5b505b8273ffffffffffffffffffffffffffffffffffffffff163373ffffffffffffffffffffffffffffffffffffffff167f038e381a45293c98a8b3e927fdbada5cf86ee27feb5c9e0df2eccfc9edcae7dd886040516116aa91906146b3565b60405180910390a380945050505050919050565b6000600b60009054906101000a900473ffffffffffffffffffffffffffffffffffffffff16905090565b6060806060806116f78561248d565b611736576040517f08c379a000000000000000000000000000000000000000000000000000000000815260040161172d906145f3565b60405180910390fd5b600d6000868152602001908152602001600020600001600d6000878152602001908152602001600020600101600d6000888152602001908152602001600020600201600d6000898152602001908152602001600020600301838054600181600116156101000203166002900480601f0160208091040260200160405190810160405280929190818152602001828054600181600116156101000203166002900480156118235780601f106117f857610100808354040283529160200191611823565b820191906000526020600020905b81548152906001019060200180831161180657829003601f168201915b50505050509350828054600181600116156101000203166002900480601f0160208091040260200160405190810160405280929190818152602001828054600181600116156101000203166002900480156118bf5780601f10611894576101008083540402835291602001916118bf565b820191906000526020600020905b8154815290600101906020018083116118a257829003601f168201915b50505050509250818054600181600116156101000203166002900480601f01602080910402602001604051908101604052809291908181526020018280546001816001161561010002031660029004801561195b5780601f106119305761010080835404028352916020019161195b565b820191906000526020600020905b81548152906001019060200180831161193e57829003601f168201915b5050505050915080805480602002602001604051908101604052809291908181526020016000905b82821015611a3f578382906000526020600020018054600181600116156101000203166002900480601f016020809104026020016040519081016040528092919081815260200182805460018160011615610100020316600290048015611a2b5780601f10611a0057610100808354040283529160200191611a2b565b820191906000526020600020905b815481529060010190602001808311611a0e57829003601f168201915b505050505081526020019060010190611983565b50505050905093509350935093509193509193565b3373ffffffffffffffffffffffffffffffffffffffff163073ffffffffffffffffffffffffffffffffffffffff16636352211e846040518263ffffffff1660e01b8152600401611aa491906146b3565b60206040518083038186803b158015611abc57600080fd5b505afa158015611ad0573d6000803e3d6000fd5b505050506040513d601f19601f82011682018060405250810190611af49190613c99565b73ffffffffffffffffffffffffffffffffffffffff1614611b4a576040517f08c379a0000000000000000000000000000000000000000000000000000000008152600401611b4190614633565b60405180910390fd5b60008111611b8d576040517f08c379a0000000000000000000000000000000000000000000000000000000008152600401611b8490614633565b60405180910390fd5b80600e6000848152602001908152602001600020819055505050565b60106020528160005260406000208181548110611bc557600080fd5b90600052602060002001600091509150505481565b600f818051602081018201805184825260208301602085012081835280955050505050506000915054906101000a900460ff1681565b606060078054600181600116156101000203166002900480601f016020809104026020016040519081016040528092919081815260200182805460018160011615610100020316600290048015611ca85780601f10611c7d57610100808354040283529160200191611ca8565b820191906000526020600020905b815481529060010190602001808311611c8b57829003601f168201915b5050505050905090565b611cba6124aa565b73ffffffffffffffffffffffffffffffffffffffff168273ffffffffffffffffffffffffffffffffffffffff161415611d5b576040517f08c379a00000000000000000000000000000000000000000000000000000000081526004018080602001828103825260198152602001807f4552433732313a20617070726f766520746f2063616c6c65720000000000000081525060200191505060405180910390fd5b8060056000611d686124aa565b73ffffffffffffffffffffffffffffffffffffffff1673ffffffffffffffffffffffffffffffffffffffff16815260200190815260200160002060008473ffffffffffffffffffffffffffffffffffffffff1673ffffffffffffffffffffffffffffffffffffffff16815260200190815260200160002060006101000a81548160ff0219169083151502179055508173ffffffffffffffffffffffffffffffffffffffff16611e156124aa565b73ffffffffffffffffffffffffffffffffffffffff167f17307eab39ab6107e8899845ad3d59bd9653f200f220920489ca2b5937696c318360405180821515815260200191505060405180910390a35050565b600a5481565b600f83604051611e7e9190614457565b908152602001604051809103902060009054906101000a900460ff1615611eda576040517f08c379a0000000000000000000000000000000000000000000000000000000008152600401611ed190614693565b60405180910390fd5b6000604051806080016040528087815260200185815260200184815260200183815250905080600d6000600c5481526020019081526020016000206000820151816000019080519060200190611f31929190613939565b506020820151816001019080519060200190611f4e929190613939565b506040820151816002019080519060200190611f6b929190613939565b506060820151816003019080519060200190611f889291906139c7565b509050508615611fad5784600e6000600c548152602001908152602001600020819055505b6001600f85604051611fbf9190614457565b908152602001604051809103902060006101000a81548160ff021916908315150217905550601060003373ffffffffffffffffffffffffffffffffffffffff1673ffffffffffffffffffffffffffffffffffffffff168152602001908152602001600020600c54908060018154018082558091505060019003906000526020600020016000909190919091505561205833600c54612a6b565b7f1f7e383d8b0cfe441191270c9f6bcb2cc714fc4100577ed293b716807dd0cf1b33600c60008154809291906001019190505560405161209992919061449e565b60405180910390a150505050505050565b6120bb6120b56124aa565b83612580565b612110576040517f08c379a0000000000000000000000000000000000000000000000000000000008152600401808060200182810382526031815260200180614bb86031913960400191505060405180910390fd5b61211c84848484612c5f565b50505050565b600c5481565b60606121338261248d565b612188576040517f08c379a000000000000000000000000000000000000000000000000000000000815260040180806020018281038252602f815260200180614b68602f913960400191505060405180910390fd5b6000600860008481526020019081526020016000208054600181600116156101000203166002900480601f0160208091040260200160405190810160405280929190818152602001828054600181600116156101000203166002900480156122315780601f1061220657610100808354040283529160200191612231565b820191906000526020600020905b81548152906001019060200180831161221457829003601f168201915b505050505090506000612242611192565b90506000815114156122585781925050506123f4565b6000825111156123295780826040516020018083805190602001908083835b6020831061229a5780518252602082019150602081019050602083039250612277565b6001836020036101000a03801982511681845116808217855250505050505090500182805190602001908083835b602083106122eb57805182526020820191506020810190506020830392506122c8565b6001836020036101000a03801982511681845116808217855250505050505090500192505050604051602081830303815290604052925050506123f4565b8061233385612cd1565b6040516020018083805190602001908083835b602083106123695780518252602082019150602081019050602083039250612346565b6001836020036101000a03801982511681845116808217855250505050505090500182805190602001908083835b602083106123ba5780518252602082019150602081019050602083039250612397565b6001836020036101000a03801982511681845116808217855250505050505090500192505050604051602081830303815290604052925050505b919050565b6000600560008473ffffffffffffffffffffffffffffffffffffffff1673ffffffffffffffffffffffffffffffffffffffff16815260200190815260200160002060008373ffffffffffffffffffffffffffffffffffffffff1673ffffffffffffffffffffffffffffffffffffffff16815260200190815260200160002060009054906101000a900460ff16905092915050565b60006124a3826002612e1890919063ffffffff16565b9050919050565b600033905090565b816004600083815260200190815260200160002060006101000a81548173ffffffffffffffffffffffffffffffffffffffff021916908373ffffffffffffffffffffffffffffffffffffffff160217905550808273ffffffffffffffffffffffffffffffffffffffff166125258361115b565b73ffffffffffffffffffffffffffffffffffffffff167f8c5be1e5ebec7d5bd14f71427d1e84f3dd0314c0f7b2291e5b200ac8c7c3b92560405160405180910390a45050565b600061257982600001612e32565b9050919050565b600061258b8261248d565b6125e0576040517f08c379a000000000000000000000000000000000000000000000000000000000815260040180806020018281038252602c815260200180614a3a602c913960400191505060405180910390fd5b60006125eb8361115b565b90508073ffffffffffffffffffffffffffffffffffffffff168473ffffffffffffffffffffffffffffffffffffffff16148061265a57508373ffffffffffffffffffffffffffffffffffffffff166126428461098d565b73ffffffffffffffffffffffffffffffffffffffff16145b8061266b575061266a81856123f9565b5b91505092915050565b8273ffffffffffffffffffffffffffffffffffffffff166126948261115b565b73ffffffffffffffffffffffffffffffffffffffff1614612700576040517f08c379a0000000000000000000000000000000000000000000000000000000008152600401808060200182810382526029815260200180614b3f6029913960400191505060405180910390fd5b600073ffffffffffffffffffffffffffffffffffffffff168273ffffffffffffffffffffffffffffffffffffffff161415612786576040517f08c379a00000000000000000000000000000000000000000000000000000000081526004018080602001828103825260248152602001806149f06024913960400191505060405180910390fd5b612791838383612e43565b61279c6000826124b2565b6127ed81600160008673ffffffffffffffffffffffffffffffffffffffff1673ffffffffffffffffffffffffffffffffffffffff168152602001908152602001600020612e4890919063ffffffff16565b5061283f81600160008573ffffffffffffffffffffffffffffffffffffffff1673ffffffffffffffffffffffffffffffffffffffff168152602001908152602001600020612e6290919063ffffffff16565b5061285681836002612e7c9092919063ffffffff16565b50808273ffffffffffffffffffffffffffffffffffffffff168473ffffffffffffffffffffffffffffffffffffffff167fddf252ad1be2c89b69c2b068fc378daa952ba7f163c4a11628f55a4df523b3ef60405160405180910390a4505050565b60006128c68360000183612eb1565b60001c905092915050565b6000806000806128e48660000186612f34565b915091508160001c8160001c9350935050509250929050565b6000612910846000018460001b84612fcd565b60001c90509392505050565b600061292a826000016130c3565b9050919050565b600061293c8261115b565b905061294a81600084612e43565b6129556000836124b2565b600060086000848152602001908152602001600020805460018160011615610100020316600290049050146129a4576008600083815260200190815260200160002060006129a39190613a27565b5b6129f582600160008473ffffffffffffffffffffffffffffffffffffffff1673ffffffffffffffffffffffffffffffffffffffff168152602001908152602001600020612e4890919063ffffffff16565b50612a0a8260026130d490919063ffffffff16565b5081600073ffffffffffffffffffffffffffffffffffffffff168273ffffffffffffffffffffffffffffffffffffffff167fddf252ad1be2c89b69c2b068fc378daa952ba7f163c4a11628f55a4df523b3ef60405160405180910390a45050565b600073ffffffffffffffffffffffffffffffffffffffff168273ffffffffffffffffffffffffffffffffffffffff161415612b0e576040517f08c379a00000000000000000000000000000000000000000000000000000000081526004018080602001828103825260208152602001807f4552433732313a206d696e7420746f20746865207a65726f206164647265737381525060200191505060405180910390fd5b612b178161248d565b15612b8a576040517f08c379a000000000000000000000000000000000000000000000000000000000815260040180806020018281038252601c8152602001807f4552433732313a20746f6b656e20616c7265616479206d696e7465640000000081525060200191505060405180910390fd5b612b9660008383612e43565b612be781600160008573ffffffffffffffffffffffffffffffffffffffff1673ffffffffffffffffffffffffffffffffffffffff168152602001908152602001600020612e6290919063ffffffff16565b50612bfe81836002612e7c9092919063ffffffff16565b50808273ffffffffffffffffffffffffffffffffffffffff16600073ffffffffffffffffffffffffffffffffffffffff167fddf252ad1be2c89b69c2b068fc378daa952ba7f163c4a11628f55a4df523b3ef60405160405180910390a45050565b612c6a848484612674565b612c76848484846130ee565b612ccb576040517f08c379a00000000000000000000000000000000000000000000000000000000081526004018080602001828103825260328152602001806149be6032913960400191505060405180910390fd5b50505050565b60606000821415612d19576040518060400160405280600181526020017f30000000000000000000000000000000000000000000000000000000000000008152509050612e13565b600082905060005b60008214612d43578080600101915050600a8281612d3b57fe5b049150612d21565b60008167ffffffffffffffff81118015612d5c57600080fd5b506040519080825280601f01601f191660200182016040528015612d8f5781602001600182028036833780820191505090505b50905060006001830390508593505b60008414612e0b57600a8481612db057fe5b0660300160f81b82828060019003935081518110612dca57fe5b60200101907effffffffffffffffffffffffffffffffffffffffffffffffffffffffffffff1916908160001a905350600a8481612e0357fe5b049350612d9e565b819450505050505b919050565b6000612e2a836000018360001b613307565b905092915050565b600081600001805490509050919050565b505050565b6000612e5a836000018360001b61332a565b905092915050565b6000612e74836000018360001b613412565b905092915050565b6000612ea8846000018460001b8473ffffffffffffffffffffffffffffffffffffffff1660001b613482565b90509392505050565b600081836000018054905011612f12576040517f08c379a000000000000000000000000000000000000000000000000000000000815260040180806020018281038252602281526020018061499c6022913960400191505060405180910390fd5b826000018281548110612f2157fe5b9060005260206000200154905092915050565b60008082846000018054905011612f96576040517f08c379a0000000000000000000000000000000000000000000000000000000008152600401808060200182810382526022815260200180614af16022913960400191505060405180910390fd5b6000846000018481548110612fa757fe5b906000526020600020906002020190508060000154816001015492509250509250929050565b60008084600101600085815260200190815260200160002054905060008114158390613094576040517f08c379a00000000000000000000000000000000000000000000000000000000081526004018080602001828103825283818151815260200191508051906020019080838360005b8381101561305957808201518184015260208101905061303e565b50505050905090810190601f1680156130865780820380516001836020036101000a031916815260200191505b509250505060405180910390fd5b508460000160018203815481106130a757fe5b9060005260206000209060020201600101549150509392505050565b600081600001805490509050919050565b60006130e6836000018360001b61355e565b905092915050565b600061310f8473ffffffffffffffffffffffffffffffffffffffff16613677565b61311c57600190506132ff565b600061328663150b7a0260e01b6131316124aa565b888787604051602401808573ffffffffffffffffffffffffffffffffffffffff1681526020018473ffffffffffffffffffffffffffffffffffffffff16815260200183815260200180602001828103825283818151815260200191508051906020019080838360005b838110156131b557808201518184015260208101905061319a565b50505050905090810190601f1680156131e25780820380516001836020036101000a031916815260200191505b5095505050505050604051602081830303815290604052907bffffffffffffffffffffffffffffffffffffffffffffffffffffffff19166020820180517bffffffffffffffffffffffffffffffffffffffffffffffffffffffff83818316178352505050506040518060600160405280603281526020016149be603291398773ffffffffffffffffffffffffffffffffffffffff1661368a9092919063ffffffff16565b9050600081806020019051602081101561329f57600080fd5b8101908080519060200190929190505050905063150b7a0260e01b7bffffffffffffffffffffffffffffffffffffffffffffffffffffffff1916817bffffffffffffffffffffffffffffffffffffffffffffffffffffffff191614925050505b949350505050565b600080836001016000848152602001908152602001600020541415905092915050565b60008083600101600084815260200190815260200160002054905060008114613406576000600182039050600060018660000180549050039050600086600001828154811061337557fe5b906000526020600020015490508087600001848154811061339257fe5b90600052602060002001819055506001830187600101600083815260200190815260200160002081905550866000018054806133ca57fe5b6001900381819060005260206000200160009055905586600101600087815260200190815260200160002060009055600194505050505061340c565b60009150505b92915050565b600061341e83836136a2565b61347757826000018290806001815401808255809150506001900390600052602060002001600090919091909150558260000180549050836001016000848152602001908152602001600020819055506001905061347c565b600090505b92915050565b600080846001016000858152602001908152602001600020549050600081141561352957846000016040518060400160405280868152602001858152509080600181540180825580915050600190039060005260206000209060020201600090919091909150600082015181600001556020820151816001015550508460000180549050856001016000868152602001908152602001600020819055506001915050613557565b8285600001600183038154811061353c57fe5b90600052602060002090600202016001018190555060009150505b9392505050565b6000808360010160008481526020019081526020016000205490506000811461366b57600060018203905060006001866000018054905003905060008660000182815481106135a957fe5b90600052602060002090600202019050808760000184815481106135c957fe5b906000526020600020906002020160008201548160000155600182015481600101559050506001830187600101600083600001548152602001908152602001600020819055508660000180548061361c57fe5b6001900381819060005260206000209060020201600080820160009055600182016000905550509055866001016000878152602001908152602001600020600090556001945050505050613671565b60009150505b92915050565b600080823b905060008111915050919050565b606061369984846000856136c5565b90509392505050565b600080836001016000848152602001908152602001600020541415905092915050565b606082471015613720576040517f08c379a0000000000000000000000000000000000000000000000000000000008152600401808060200182810382526026815260200180614a146026913960400191505060405180910390fd5b61372985613677565b61379b576040517f08c379a000000000000000000000000000000000000000000000000000000000815260040180806020018281038252601d8152602001807f416464726573733a2063616c6c20746f206e6f6e2d636f6e747261637400000081525060200191505060405180910390fd5b6000808673ffffffffffffffffffffffffffffffffffffffff1685876040518082805190602001908083835b602083106137ea57805182526020820191506020810190506020830392506137c7565b6001836020036101000a03801982511681845116808217855250505050505090500191505060006040518083038185875af1925050503d806000811461384c576040519150601f19603f3d011682016040523d82523d6000602084013e613851565b606091505b509150915061386182828661386d565b92505050949350505050565b6060831561387d57829050613932565b6000835111156138905782518084602001fd5b816040517f08c379a00000000000000000000000000000000000000000000000000000000081526004018080602001828103825283818151815260200191508051906020019080838360005b838110156138f75780820151818401526020810190506138dc565b50505050905090810190601f1680156139245780820380516001836020036101000a031916815260200191505b509250505060405180910390fd5b9392505050565b828054600181600116156101000203166002900490600052602060002090601f01602090048101928261396f57600085556139b6565b82601f1061398857805160ff19168380011785556139b6565b828001600101855582156139b6579182015b828111156139b557825182559160200191906001019061399a565b5b5090506139c39190613a6f565b5090565b828054828255906000526020600020908101928215613a16579160200282015b82811115613a15578251829080519060200190613a05929190613939565b50916020019190600101906139e7565b5b509050613a239190613a8c565b5090565b50805460018160011615610100020316600290046000825580601f10613a4d5750613a6c565b601f016020900490600052602060002090810190613a6b9190613a6f565b5b50565b5b80821115613a88576000816000905550600101613a70565b5090565b5b80821115613aac5760008181613aa39190613a27565b50600101613a8d565b5090565b6000613ac3613abe846146ff565b6146ce565b9050808382526020820190508260005b85811015613b035781358501613ae98882613c31565b845260208401935060208301925050600181019050613ad3565b5050509392505050565b6000613b20613b1b8461472b565b6146ce565b905082815260208101848484011115613b3857600080fd5b613b438482856148ea565b509392505050565b6000613b5e613b598461475b565b6146ce565b905082815260208101848484011115613b7657600080fd5b613b818482856148ea565b509392505050565b600081359050613b988161493f565b92915050565b600081519050613bad8161493f565b92915050565b600082601f830112613bc457600080fd5b8135613bd4848260208601613ab0565b91505092915050565b600081359050613bec81614956565b92915050565b600081359050613c018161496d565b92915050565b600082601f830112613c1857600080fd5b8135613c28848260208601613b0d565b91505092915050565b600082601f830112613c4257600080fd5b8135613c52848260208601613b4b565b91505092915050565b600081359050613c6a81614984565b92915050565b600060208284031215613c8257600080fd5b6000613c9084828501613b89565b91505092915050565b600060208284031215613cab57600080fd5b6000613cb984828501613b9e565b91505092915050565b60008060408385031215613cd557600080fd5b6000613ce385828601613b89565b9250506020613cf485828601613b89565b9150509250929050565b600080600060608486031215613d1357600080fd5b6000613d2186828701613b89565b9350506020613d3286828701613b89565b9250506040613d4386828701613c5b565b9150509250925092565b60008060008060808587031215613d6357600080fd5b6000613d7187828801613b89565b9450506020613d8287828801613b89565b9350506040613d9387828801613c5b565b925050606085013567ffffffffffffffff811115613db057600080fd5b613dbc87828801613c07565b91505092959194509250565b60008060408385031215613ddb57600080fd5b6000613de985828601613b89565b9250506020613dfa85828601613bdd565b9150509250929050565b60008060408385031215613e1757600080fd5b6000613e2585828601613b89565b9250506020613e3685828601613c5b565b9150509250929050565b60008060008060008060c08789031215613e5957600080fd5b6000613e6789828a01613bdd565b965050602087013567ffffffffffffffff811115613e8457600080fd5b613e9089828a01613c31565b9550506040613ea189828a01613c5b565b945050606087013567ffffffffffffffff811115613ebe57600080fd5b613eca89828a01613c31565b935050608087013567ffffffffffffffff811115613ee757600080fd5b613ef389828a01613c31565b92505060a087013567ffffffffffffffff811115613f1057600080fd5b613f1c89828a01613bb3565b9150509295509295509295565b600060208284031215613f3b57600080fd5b6000613f4984828501613bf2565b91505092915050565b600060208284031215613f6457600080fd5b600082013567ffffffffffffffff811115613f7e57600080fd5b613f8a84828501613c31565b91505092915050565b600060208284031215613fa557600080fd5b6000613fb384828501613c5b565b91505092915050565b60008060408385031215613fcf57600080fd5b6000613fdd85828601613c5b565b9250506020613fee85828601613c5b565b9150509250929050565b60006140048383614124565b905092915050565b60006140188383614439565b60208301905092915050565b61402d816148b4565b82525050565b61403c81614840565b82525050565b600061404d826147ab565b61405781856147e6565b9350836020820285016140698561478b565b8060005b858110156140a557848403895281516140868582613ff8565b9450614091836147cc565b925060208a0199505060018101905061406d565b50829750879550505050505092915050565b60006140c2826147b6565b6140cc81856147f7565b93506140d78361479b565b8060005b838110156141085781516140ef888261400c565b97506140fa836147d9565b9250506001810190506140db565b5085935050505092915050565b61411e81614852565b82525050565b600061412f826147c1565b6141398185614813565b93506141498185602086016148f9565b6141528161492e565b840191505092915050565b6000614168826147c1565b6141728185614824565b93506141828185602086016148f9565b61418b8161492e565b840191505092915050565b60006141a1826147c1565b6141ab8185614835565b93506141bb8185602086016148f9565b80840191505092915050565b60006141d4602483614824565b91507f596f75206d757374206f776e2074686520636f6e747261637420746f20646f2060008301527f74686174000000000000000000000000000000000000000000000000000000006020830152604082019050919050565b600061423a601b83614824565b91507f546869732065737461746520646f6573206e6f742065786973747300000000006000830152602082019050919050565b600061427a601b83614824565b91507f5468697320657374617465206973206e6f7420666f722073616c6500000000006000830152602082019050919050565b60006142ba601883614824565b91507f5468697320657374617465206973206e6f7420796f75727300000000000000006000830152602082019050919050565b60006142fa602583614824565b91507f596f75277265206e6f7420746865206f776e6572206f66207468697320636f6e60008301527f74726163740000000000000000000000000000000000000000000000000000006020830152604082019050919050565b6000614360602f83614824565b91507f596f75206e65656420746f2070726f76696465206d6f72652045544820746f2060008301527f62757920746869732065737461746500000000000000000000000000000000006020830152604082019050919050565b60006143c6603483614824565b91507f416e2065737461746520746f6b656e207769746820746869732061646472657360008301527f7320697320616c726561647920646566696e65640000000000000000000000006020830152604082019050919050565b600061442c600083614808565b9150600082019050919050565b614442816148aa565b82525050565b614451816148aa565b82525050565b60006144638284614196565b915081905092915050565b60006144798261441f565b9150819050919050565b60006020820190506144986000830184614033565b92915050565b60006040820190506144b36000830185614024565b6144c06020830184614448565b9392505050565b600060208201905081810360008301526144e181846140b7565b905092915050565b60006020820190506144fe6000830184614115565b92915050565b6000602082019050818103600083015261451e818461415d565b905092915050565b60006060820190508181036000830152614540818661415d565b90508181036020830152614554818561415d565b90508181036040830152614568818461415d565b9050949350505050565b6000608082019050818103600083015261458c818761415d565b905081810360208301526145a0818661415d565b905081810360408301526145b4818561415d565b905081810360608301526145c88184614042565b905095945050505050565b600060208201905081810360008301526145ec816141c7565b9050919050565b6000602082019050818103600083015261460c8161422d565b9050919050565b6000602082019050818103600083015261462c8161426d565b9050919050565b6000602082019050818103600083015261464c816142ad565b9050919050565b6000602082019050818103600083015261466c816142ed565b9050919050565b6000602082019050818103600083015261468c81614353565b9050919050565b600060208201905081810360008301526146ac816143b9565b9050919050565b60006020820190506146c86000830184614448565b92915050565b6000604051905081810181811067ffffffffffffffff821117156146f5576146f461492c565b5b8060405250919050565b600067ffffffffffffffff82111561471a5761471961492c565b5b602082029050602081019050919050565b600067ffffffffffffffff8211156147465761474561492c565b5b601f19601f8301169050602081019050919050565b600067ffffffffffffffff8211156147765761477561492c565b5b601f19601f8301169050602081019050919050565b6000819050602082019050919050565b6000819050602082019050919050565b600081519050919050565b600081519050919050565b600081519050919050565b6000602082019050919050565b6000602082019050919050565b600082825260208201905092915050565b600082825260208201905092915050565b600081905092915050565b600082825260208201905092915050565b600082825260208201905092915050565b600081905092915050565b600061484b8261488a565b9050919050565b60008115159050919050565b60007fffffffff0000000000000000000000000000000000000000000000000000000082169050919050565b600073ffffffffffffffffffffffffffffffffffffffff82169050919050565b6000819050919050565b60006148bf826148c6565b9050919050565b60006148d1826148d8565b9050919050565b60006148e38261488a565b9050919050565b82818337600083830152505050565b60005b838110156149175780820151818401526020810190506148fc565b83811115614926576000848401525b50505050565bfe5b6000601f19601f8301169050919050565b61494881614840565b811461495357600080fd5b50565b61495f81614852565b811461496a57600080fd5b50565b6149768161485e565b811461498157600080fd5b50565b61498d816148aa565b811461499857600080fd5b5056fe456e756d657261626c655365743a20696e646578206f7574206f6620626f756e64734552433732313a207472616e7366657220746f206e6f6e20455243373231526563656976657220696d706c656d656e7465724552433732313a207472616e7366657220746f20746865207a65726f2061646472657373416464726573733a20696e73756666696369656e742062616c616e636520666f722063616c6c4552433732313a206f70657261746f7220717565727920666f72206e6f6e6578697374656e7420746f6b656e4552433732313a20617070726f76652063616c6c6572206973206e6f74206f776e6572206e6f7220617070726f76656420666f7220616c6c4552433732313a2062616c616e636520717565727920666f7220746865207a65726f20616464726573734552433732313a206f776e657220717565727920666f72206e6f6e6578697374656e7420746f6b656e456e756d657261626c654d61703a20696e646578206f7574206f6620626f756e64734552433732313a20617070726f76656420717565727920666f72206e6f6e6578697374656e7420746f6b656e4552433732313a207472616e73666572206f6620746f6b656e2074686174206973206e6f74206f776e4552433732314d657461646174613a2055524920717565727920666f72206e6f6e6578697374656e7420746f6b656e4552433732313a20617070726f76616c20746f2063757272656e74206f776e65724552433732313a207472616e736665722063616c6c6572206973206e6f74206f776e6572206e6f7220617070726f766564a264697066735822122059fb33de2022343a89859ec404a6d9a38a8af4dfa2affd2b9d8871c107af19a864736f6c63430007060033",
  "immutableReferences": {},
  "source": "pragma solidity <0.8.0;\npragma experimental ABIEncoderV2;\n\nimport \"@openzeppelin/contracts/token/ERC721/ERC721.sol\";\n\n\ncontract Catalog is ERC721 {\n    // Owner vars\n    uint public __commissionPt;\n    address private __owner;\n\n    // Counters\n    uint256 public __estateCounter;\n\n    // Mappings\n    mapping (uint256 => Estate) public __estates;\n    mapping (uint256 => uint256) public __estatesForSale;\n    mapping(string => bool) public __addressExists;\n    mapping(address => uint256[]) public __ownerEstates;\n\n    // Estate Struct\n    struct Estate {\n        // Mandatory\n        string name;\n        string postal;\n        string description;\n        //  Optional\n        string[] gallery;\n    }\n\n    constructor() ERC721(\"catalog\", \"CATALOG\") {\n        __owner = msg.sender;\n        __commissionPt=1000;\n        __estateCounter=0;\n    }\n\n    event estateAdded(address _owner, uint _id);\n    event transactionEmitted(address indexed _from, address indexed _to, uint _id);\n\n    function registerEstate(bool _available, string memory _name, uint256 _price, string memory _postal, string memory _description, string[] memory _gallery) public {\n        // Estate must be unique\n        require(!__addressExists[_postal], \"An estate token with this address is already defined\");\n        \n        // Init estate\n        Estate memory newEstate = Estate(_name, _postal, _description, _gallery);\n\n        // Setup\n        __estates[__estateCounter] = newEstate;\n        if (_available) {\n            __estatesForSale[__estateCounter] = _price;\n        }\n        __addressExists[_postal] = true;\n        __ownerEstates[msg.sender].push(__estateCounter);\n        _mint(msg.sender, __estateCounter);\n        emit estateAdded(msg.sender, __estateCounter++);\n\n    }\n\n    function putEstateForSale(uint256 _tokenId, uint256 _price) public {\n        require(this.ownerOf(_tokenId) == msg.sender, \"This estate is not yours\");\n        require(_price>0, \"This estate is not yours\");\n        __estatesForSale[_tokenId] = _price;\n    }\n    \n    function isOwnerContract() public view returns (address) {\n        return __owner;\n    }\n\n    function retrieveCommission(uint _commission) public returns (bool) {\n        require(msg.sender==__owner, \"You're not the owner of this contract\");\n        (bool success, ) = msg.sender.call{value: _commission}(\"\");\n        return success;\n    }\n    \n    function getCommissionPt() public view returns (uint) {\n        return __commissionPt;\n    }\n\n    function removeEstateFromSale(uint256 _tokenId) public {\n        require(this.ownerOf(_tokenId) == msg.sender, \"This estate is not yours\");\n        __estatesForSale[_tokenId] = 0;\n    }\n\n    function setCommissionPt(uint256 _value) public {\n        require(msg.sender==__owner, \"You must own the contract to do that\");\n        __commissionPt=_value*100;\n    }\n\n    function getOwnerNb(address _owner) public view returns (uint256[] memory) {\n        return __ownerEstates[_owner];\n    }\n\n    function getEstate(uint256 _tokenId) public view returns (string memory, string memory, string memory, string[] memory){\n        require(_exists(_tokenId), \"This estate does not exists\");\n        return (\n            __estates[_tokenId].name,\n            __estates[_tokenId].postal,\n            __estates[_tokenId].description,\n            __estates[_tokenId].gallery\n        );\n    }\n\n    function buyEstate(uint256 _tokenId) public payable returns (bool){\n        // Check if Estate is sallable\n        require(_exists(_tokenId), \"This estate does not exists\");\n        require(__estatesForSale[_tokenId]>0, \"This estate is not for sale\");\n\n        // Retrieve Estate price and check wether the request amount is sufficient.\n        uint256 estatePrice = __estatesForSale[_tokenId];\n        address payable ownerOfEstate = address(uint160(ownerOf(_tokenId)));\n        require(msg.value>=estatePrice, \"You need to provide more ETH to buy this estate\");\n        \n        // Make the transaction\n        uint256 commission = estatePrice * __commissionPt / 10000;\n        (bool success, ) = ownerOfEstate.call{value: estatePrice-commission}(\"\");\n        // Manage transfert\n        _burn(_tokenId);\n        _mint(msg.sender, _tokenId);\n        delete __ownerEstates[ownerOfEstate][_tokenId];\n        __ownerEstates[msg.sender].push(_tokenId);\n        // Return balance overage to buyer\n        if (msg.value > estatePrice) {\n            msg.sender.transfer(msg.value-estatePrice);\n        }\n        emit transactionEmitted(msg.sender, ownerOfEstate, _tokenId);\n        return success;\n    }\n}",
  "sourcePath": "/home/matisse/Documents/supinfo/5bloc-front-app/src/contracts/Catalog.sol",
  "compiler": {
    "name": "solc",
    "version": "0.7.6+commit.7338295f.Emscripten.clang"
  },
  "schemaVersion": "3.3.4",
  "updatedAt": "2021-03-03T09:28:54.600Z",
  "networkType": "ethereum",
  "devdoc": {
    "kind": "dev",
    "methods": {
      "approve(address,uint256)": {
        "details": "See {IERC721-approve}."
      },
      "balanceOf(address)": {
        "details": "See {IERC721-balanceOf}."
      },
      "baseURI()": {
        "details": "Returns the base URI set via {_setBaseURI}. This will be automatically added as a prefix in {tokenURI} to each token's URI, or to the token ID if no specific URI is set for that token ID."
      },
      "getApproved(uint256)": {
        "details": "See {IERC721-getApproved}."
      },
      "isApprovedForAll(address,address)": {
        "details": "See {IERC721-isApprovedForAll}."
      },
      "name()": {
        "details": "See {IERC721Metadata-name}."
      },
      "ownerOf(uint256)": {
        "details": "See {IERC721-ownerOf}."
      },
      "safeTransferFrom(address,address,uint256)": {
        "details": "See {IERC721-safeTransferFrom}."
      },
      "safeTransferFrom(address,address,uint256,bytes)": {
        "details": "See {IERC721-safeTransferFrom}."
      },
      "setApprovalForAll(address,bool)": {
        "details": "See {IERC721-setApprovalForAll}."
      },
      "supportsInterface(bytes4)": {
        "details": "See {IERC165-supportsInterface}. Time complexity O(1), guaranteed to always use less than 30 000 gas."
      },
      "symbol()": {
        "details": "See {IERC721Metadata-symbol}."
      },
      "tokenByIndex(uint256)": {
        "details": "See {IERC721Enumerable-tokenByIndex}."
      },
      "tokenOfOwnerByIndex(address,uint256)": {
        "details": "See {IERC721Enumerable-tokenOfOwnerByIndex}."
      },
      "tokenURI(uint256)": {
        "details": "See {IERC721Metadata-tokenURI}."
      },
      "totalSupply()": {
        "details": "See {IERC721Enumerable-totalSupply}."
      },
      "transferFrom(address,address,uint256)": {
        "details": "See {IERC721-transferFrom}."
      }
    },
    "version": 1
  },
  "userdoc": {
    "kind": "user",
    "methods": {},
    "version": 1
  }
}