{
  "contractName": "Course",
  "abi": [
    {
      "inputs": [],
      "stateMutability": "nonpayable",
      "type": "constructor"
    },
    {
      "anonymous": false,
      "inputs": [
        {
          "indexed": true,
          "internalType": "address",
          "name": "owner",
          "type": "address"
        },
        {
          "indexed": true,
          "internalType": "address",
          "name": "approved",
          "type": "address"
        },
        {
          "indexed": true,
          "internalType": "uint256",
          "name": "tokenId",
          "type": "uint256"
        }
      ],
      "name": "Approval",
      "type": "event"
    },
    {
      "anonymous": false,
      "inputs": [
        {
          "indexed": true,
          "internalType": "address",
          "name": "owner",
          "type": "address"
        },
        {
          "indexed": true,
          "internalType": "address",
          "name": "operator",
          "type": "address"
        },
        {
          "indexed": false,
          "internalType": "bool",
          "name": "approved",
          "type": "bool"
        }
      ],
      "name": "ApprovalForAll",
      "type": "event"
    },
    {
      "anonymous": false,
      "inputs": [
        {
          "indexed": true,
          "internalType": "address",
          "name": "from",
          "type": "address"
        },
        {
          "indexed": true,
          "internalType": "address",
          "name": "to",
          "type": "address"
        },
        {
          "indexed": true,
          "internalType": "uint256",
          "name": "tokenId",
          "type": "uint256"
        }
      ],
      "name": "Transfer",
      "type": "event"
    },
    {
      "anonymous": false,
      "inputs": [
        {
          "indexed": false,
          "internalType": "address",
          "name": "professor",
          "type": "address"
        },
        {
          "indexed": false,
          "internalType": "address",
          "name": "student",
          "type": "address"
        },
        {
          "indexed": false,
          "internalType": "uint256",
          "name": "timestamp",
          "type": "uint256"
        }
      ],
      "name": "studentAdded",
      "type": "event"
    },
    {
      "anonymous": false,
      "inputs": [
        {
          "indexed": false,
          "internalType": "address",
          "name": "professor",
          "type": "address"
        },
        {
          "indexed": false,
          "internalType": "address",
          "name": "student",
          "type": "address"
        },
        {
          "indexed": false,
          "internalType": "uint256",
          "name": "timestamp",
          "type": "uint256"
        }
      ],
      "name": "studentAssessed",
      "type": "event"
    },
    {
      "inputs": [
        {
          "internalType": "address",
          "name": "",
          "type": "address"
        }
      ],
      "name": "__studentExists",
      "outputs": [
        {
          "internalType": "bool",
          "name": "",
          "type": "bool"
        }
      ],
      "stateMutability": "view",
      "type": "function",
      "constant": true
    },
    {
      "inputs": [
        {
          "internalType": "address",
          "name": "",
          "type": "address"
        }
      ],
      "name": "__students",
      "outputs": [
        {
          "internalType": "address",
          "name": "id",
          "type": "address"
        },
        {
          "internalType": "string",
          "name": "name",
          "type": "string"
        },
        {
          "internalType": "int256",
          "name": "grade",
          "type": "int256"
        },
        {
          "internalType": "string",
          "name": "comment",
          "type": "string"
        }
      ],
      "stateMutability": "view",
      "type": "function",
      "constant": true
    },
    {
      "inputs": [
        {
          "internalType": "address",
          "name": "to",
          "type": "address"
        },
        {
          "internalType": "uint256",
          "name": "tokenId",
          "type": "uint256"
        }
      ],
      "name": "approve",
      "outputs": [],
      "stateMutability": "nonpayable",
      "type": "function"
    },
    {
      "inputs": [
        {
          "internalType": "address",
          "name": "owner",
          "type": "address"
        }
      ],
      "name": "balanceOf",
      "outputs": [
        {
          "internalType": "uint256",
          "name": "",
          "type": "uint256"
        }
      ],
      "stateMutability": "view",
      "type": "function",
      "constant": true
    },
    {
      "inputs": [],
      "name": "baseURI",
      "outputs": [
        {
          "internalType": "string",
          "name": "",
          "type": "string"
        }
      ],
      "stateMutability": "view",
      "type": "function",
      "constant": true
    },
    {
      "inputs": [
        {
          "internalType": "uint256",
          "name": "tokenId",
          "type": "uint256"
        }
      ],
      "name": "getApproved",
      "outputs": [
        {
          "internalType": "address",
          "name": "",
          "type": "address"
        }
      ],
      "stateMutability": "view",
      "type": "function",
      "constant": true
    },
    {
      "inputs": [
        {
          "internalType": "address",
          "name": "owner",
          "type": "address"
        },
        {
          "internalType": "address",
          "name": "operator",
          "type": "address"
        }
      ],
      "name": "isApprovedForAll",
      "outputs": [
        {
          "internalType": "bool",
          "name": "",
          "type": "bool"
        }
      ],
      "stateMutability": "view",
      "type": "function",
      "constant": true
    },
    {
      "inputs": [],
      "name": "name",
      "outputs": [
        {
          "internalType": "string",
          "name": "",
          "type": "string"
        }
      ],
      "stateMutability": "view",
      "type": "function",
      "constant": true
    },
    {
      "inputs": [],
      "name": "nbStudents",
      "outputs": [
        {
          "internalType": "uint256",
          "name": "",
          "type": "uint256"
        }
      ],
      "stateMutability": "view",
      "type": "function",
      "constant": true
    },
    {
      "inputs": [
        {
          "internalType": "uint256",
          "name": "tokenId",
          "type": "uint256"
        }
      ],
      "name": "ownerOf",
      "outputs": [
        {
          "internalType": "address",
          "name": "",
          "type": "address"
        }
      ],
      "stateMutability": "view",
      "type": "function",
      "constant": true
    },
    {
      "inputs": [],
      "name": "professor",
      "outputs": [
        {
          "internalType": "address",
          "name": "",
          "type": "address"
        }
      ],
      "stateMutability": "view",
      "type": "function",
      "constant": true
    },
    {
      "inputs": [
        {
          "internalType": "address",
          "name": "from",
          "type": "address"
        },
        {
          "internalType": "address",
          "name": "to",
          "type": "address"
        },
        {
          "internalType": "uint256",
          "name": "tokenId",
          "type": "uint256"
        }
      ],
      "name": "safeTransferFrom",
      "outputs": [],
      "stateMutability": "nonpayable",
      "type": "function"
    },
    {
      "inputs": [
        {
          "internalType": "address",
          "name": "from",
          "type": "address"
        },
        {
          "internalType": "address",
          "name": "to",
          "type": "address"
        },
        {
          "internalType": "uint256",
          "name": "tokenId",
          "type": "uint256"
        },
        {
          "internalType": "bytes",
          "name": "_data",
          "type": "bytes"
        }
      ],
      "name": "safeTransferFrom",
      "outputs": [],
      "stateMutability": "nonpayable",
      "type": "function"
    },
    {
      "inputs": [
        {
          "internalType": "address",
          "name": "operator",
          "type": "address"
        },
        {
          "internalType": "bool",
          "name": "approved",
          "type": "bool"
        }
      ],
      "name": "setApprovalForAll",
      "outputs": [],
      "stateMutability": "nonpayable",
      "type": "function"
    },
    {
      "inputs": [],
      "name": "studentCounter",
      "outputs": [
        {
          "internalType": "uint256",
          "name": "",
          "type": "uint256"
        }
      ],
      "stateMutability": "view",
      "type": "function",
      "constant": true
    },
    {
      "inputs": [
        {
          "internalType": "uint256",
          "name": "",
          "type": "uint256"
        }
      ],
      "name": "students",
      "outputs": [
        {
          "internalType": "address",
          "name": "",
          "type": "address"
        }
      ],
      "stateMutability": "view",
      "type": "function",
      "constant": true
    },
    {
      "inputs": [
        {
          "internalType": "bytes4",
          "name": "interfaceId",
          "type": "bytes4"
        }
      ],
      "name": "supportsInterface",
      "outputs": [
        {
          "internalType": "bool",
          "name": "",
          "type": "bool"
        }
      ],
      "stateMutability": "view",
      "type": "function",
      "constant": true
    },
    {
      "inputs": [],
      "name": "symbol",
      "outputs": [
        {
          "internalType": "string",
          "name": "",
          "type": "string"
        }
      ],
      "stateMutability": "view",
      "type": "function",
      "constant": true
    },
    {
      "inputs": [],
      "name": "title",
      "outputs": [
        {
          "internalType": "string",
          "name": "",
          "type": "string"
        }
      ],
      "stateMutability": "view",
      "type": "function",
      "constant": true
    },
    {
      "inputs": [
        {
          "internalType": "uint256",
          "name": "index",
          "type": "uint256"
        }
      ],
      "name": "tokenByIndex",
      "outputs": [
        {
          "internalType": "uint256",
          "name": "",
          "type": "uint256"
        }
      ],
      "stateMutability": "view",
      "type": "function",
      "constant": true
    },
    {
      "inputs": [
        {
          "internalType": "address",
          "name": "owner",
          "type": "address"
        },
        {
          "internalType": "uint256",
          "name": "index",
          "type": "uint256"
        }
      ],
      "name": "tokenOfOwnerByIndex",
      "outputs": [
        {
          "internalType": "uint256",
          "name": "",
          "type": "uint256"
        }
      ],
      "stateMutability": "view",
      "type": "function",
      "constant": true
    },
    {
      "inputs": [
        {
          "internalType": "uint256",
          "name": "tokenId",
          "type": "uint256"
        }
      ],
      "name": "tokenURI",
      "outputs": [
        {
          "internalType": "string",
          "name": "",
          "type": "string"
        }
      ],
      "stateMutability": "view",
      "type": "function",
      "constant": true
    },
    {
      "inputs": [],
      "name": "totalSupply",
      "outputs": [
        {
          "internalType": "uint256",
          "name": "",
          "type": "uint256"
        }
      ],
      "stateMutability": "view",
      "type": "function",
      "constant": true
    },
    {
      "inputs": [
        {
          "internalType": "address",
          "name": "from",
          "type": "address"
        },
        {
          "internalType": "address",
          "name": "to",
          "type": "address"
        },
        {
          "internalType": "uint256",
          "name": "tokenId",
          "type": "uint256"
        }
      ],
      "name": "transferFrom",
      "outputs": [],
      "stateMutability": "nonpayable",
      "type": "function"
    },
    {
      "inputs": [
        {
          "internalType": "address",
          "name": "_studentId",
          "type": "address"
        },
        {
          "internalType": "string",
          "name": "_name",
          "type": "string"
        }
      ],
      "name": "registerStudent",
      "outputs": [],
      "stateMutability": "nonpayable",
      "type": "function"
    },
    {
      "inputs": [
        {
          "internalType": "address",
          "name": "_studentId",
          "type": "address"
        },
        {
          "internalType": "int256",
          "name": "_grade",
          "type": "int256"
        },
        {
          "internalType": "string",
          "name": "_comment",
          "type": "string"
        }
      ],
      "name": "assessStudent",
      "outputs": [],
      "stateMutability": "nonpayable",
      "type": "function"
    },
    {
      "inputs": [
        {
          "internalType": "address",
          "name": "_studentId",
          "type": "address"
        }
      ],
      "name": "getGrade",
      "outputs": [
        {
          "internalType": "string",
          "name": "",
          "type": "string"
        },
        {
          "internalType": "int256",
          "name": "",
          "type": "int256"
        },
        {
          "internalType": "string",
          "name": "",
          "type": "string"
        }
      ],
      "stateMutability": "view",
      "type": "function",
      "constant": true
    },
    {
      "inputs": [],
      "name": "getProfessor",
      "outputs": [
        {
          "internalType": "address",
          "name": "",
          "type": "address"
        }
      ],
      "stateMutability": "view",
      "type": "function",
      "constant": true
    }
  ],
  "bytecode": "0x60806040523480156200001157600080fd5b506040518060400160405280600681526020017f636f7572736500000000000000000000000000000000000000000000000000008152506040518060400160405280600681526020017f434f555253450000000000000000000000000000000000000000000000000000815250620000966301ffc9a760e01b620001b760201b60201c565b8160069080519060200190620000ae929190620002c0565b508060079080519060200190620000c7929190620002c0565b50620000e06380ac58cd60e01b620001b760201b60201c565b620000f8635b5e139f60e01b620001b760201b60201c565b6200011063780e9d6360e01b620001b760201b60201c565b505033600a60006101000a81548173ffffffffffffffffffffffffffffffffffffffff021916908373ffffffffffffffffffffffffffffffffffffffff1602179055506000600b819055506000600d819055506040518060400160405280600d81526020017f4d617468656d6174697175657300000000000000000000000000000000000000815250600c9080519060200190620001b0929190620002c0565b5062000376565b63ffffffff60e01b817bffffffffffffffffffffffffffffffffffffffffffffffffffffffff1916141562000254576040517f08c379a000000000000000000000000000000000000000000000000000000000815260040180806020018281038252601c8152602001807f4552433136353a20696e76616c696420696e746572666163652069640000000081525060200191505060405180910390fd5b6001600080837bffffffffffffffffffffffffffffffffffffffffffffffffffffffff19167bffffffffffffffffffffffffffffffffffffffffffffffffffffffff1916815260200190815260200160002060006101000a81548160ff02191690831515021790555050565b828054600181600116156101000203166002900490600052602060002090601f016020900481019282620002f8576000855562000344565b82601f106200031357805160ff191683800117855562000344565b8280016001018555821562000344579182015b828111156200034357825182559160200191906001019062000326565b5b50905062000353919062000357565b5090565b5b808211156200037257600081600090555060010162000358565b5090565b613b1280620003866000396000f3fe608060405234801561001057600080fd5b50600436106101c45760003560e01c80635113940d116100f957806395d89b4111610097578063ba18b9ec11610071578063ba18b9ec14610544578063c87b56dd14610562578063e3596cac14610592578063e985e9c5146105b0576101c4565b806395d89b41146104ee578063a22cb4651461050c578063b88d4fde14610528576101c4565b80636c0360eb116100d35780636c0360eb1461045457806370a08231146104725780638c949724146104a257806390b08ebb146104be576101c4565b80635113940d146103e85780636352211e1461040657806366193d5b14610436576101c4565b806323b872dd11610166578063313739a311610140578063313739a31461034c57806342842e0e1461037e5780634a79d50c1461039a5780634f6ccce7146103b8576101c4565b806323b872dd146102cd57806328997e4c146102e95780632f745c591461031c576101c4565b8063081812fc116101a2578063081812fc14610247578063095ea7b314610277578063165983421461029357806318160ddd146102af576101c4565b806301ffc9a7146101c957806306ead22e146101f957806306fdde0314610229575b600080fd5b6101e360048036038101906101de91906132e2565b6105e0565b6040516101f09190613569565b60405180910390f35b610213600480360381019061020e919061330b565b610647565b60405161022091906134c4565b60405180910390f35b610231610686565b60405161023e9190613584565b60405180910390f35b610261600480360381019061025c919061330b565b610728565b60405161026e91906134c4565b60405180910390f35b610291600480360381019061028c91906132a6565b6107c3565b005b6102ad60048036038101906102a89190613252565b610907565b005b6102b7610c73565b6040516102c4919061364b565b60405180910390f35b6102e760048036038101906102e291906130e5565b610c84565b005b61030360048036038101906102fe9190613080565b610cfa565b6040516103139493929190613516565b60405180910390f35b610336600480360381019061033191906132a6565b610e7a565b604051610343919061364b565b60405180910390f35b61036660048036038101906103619190613080565b610ed5565b604051610375939291906135a6565b60405180910390f35b610398600480360381019061039391906130e5565b6111ad565b005b6103a26111cd565b6040516103af9190613584565b60405180910390f35b6103d260048036038101906103cd919061330b565b61126b565b6040516103df919061364b565b60405180910390f35b6103f061128e565b6040516103fd91906134c4565b60405180910390f35b610420600480360381019061041b919061330b565b6112b4565b60405161042d91906134c4565b60405180910390f35b61043e6112eb565b60405161044b919061364b565b60405180910390f35b61045c6112f1565b6040516104699190613584565b60405180910390f35b61048c60048036038101906104879190613080565b611393565b604051610499919061364b565b60405180910390f35b6104bc60048036038101906104b791906131eb565b611468565b005b6104d860048036038101906104d39190613080565b6115d8565b6040516104e59190613569565b60405180910390f35b6104f66115f8565b6040516105039190613584565b60405180910390f35b610526600480360381019061052191906131af565b61169a565b005b610542600480360381019061053d9190613134565b611850565b005b61054c6118c8565b60405161055991906134c4565b60405180910390f35b61057c6004803603810190610577919061330b565b6118f2565b6040516105899190613584565b60405180910390f35b61059a611bc3565b6040516105a7919061364b565b60405180910390f35b6105ca60048036038101906105c591906130a9565b611bc9565b6040516105d79190613569565b60405180910390f35b6000806000837bffffffffffffffffffffffffffffffffffffffffffffffffffffffff19167bffffffffffffffffffffffffffffffffffffffffffffffffffffffff1916815260200190815260200160002060009054906101000a900460ff169050919050565b600e818154811061065757600080fd5b906000526020600020016000915054906101000a900473ffffffffffffffffffffffffffffffffffffffff1681565b606060068054600181600116156101000203166002900480601f01602080910402602001604051908101604052809291908181526020018280546001816001161561010002031660029004801561071e5780601f106106f35761010080835404028352916020019161071e565b820191906000526020600020905b81548152906001019060200180831161070157829003601f168201915b5050505050905090565b600061073382611c5d565b610788576040517f08c379a000000000000000000000000000000000000000000000000000000000815260040180806020018281038252602c815260200180613a07602c913960400191505060405180910390fd5b6004600083815260200190815260200160002060009054906101000a900473ffffffffffffffffffffffffffffffffffffffff169050919050565b60006107ce826112b4565b90508073ffffffffffffffffffffffffffffffffffffffff168373ffffffffffffffffffffffffffffffffffffffff161415610855576040517f08c379a0000000000000000000000000000000000000000000000000000000008152600401808060200182810382526021815260200180613a8b6021913960400191505060405180910390fd5b8073ffffffffffffffffffffffffffffffffffffffff16610874611c7a565b73ffffffffffffffffffffffffffffffffffffffff1614806108a357506108a28161089d611c7a565b611bc9565b5b6108f8576040517f08c379a000000000000000000000000000000000000000000000000000000000815260040180806020018281038252603881526020018061395a6038913960400191505060405180910390fd5b6109028383611c82565b505050565b600a60009054906101000a900473ffffffffffffffffffffffffffffffffffffffff168073ffffffffffffffffffffffffffffffffffffffff163373ffffffffffffffffffffffffffffffffffffffff1614610998576040517f08c379a000000000000000000000000000000000000000000000000000000000815260040161098f9061362b565b60405180910390fd5b601060008473ffffffffffffffffffffffffffffffffffffffff1673ffffffffffffffffffffffffffffffffffffffff16815260200190815260200160002060009054906101000a900460ff1615610a25576040517f08c379a0000000000000000000000000000000000000000000000000000000008152600401610a1c9061360b565b60405180910390fd5b600060405180608001604052808573ffffffffffffffffffffffffffffffffffffffff1681526020018481526020017fffffffffffffffffffffffffffffffffffffffffffffffffffffffffffffffff815260200160405180602001604052806000815250815250905080600f60008673ffffffffffffffffffffffffffffffffffffffff1673ffffffffffffffffffffffffffffffffffffffff16815260200190815260200160002060008201518160000160006101000a81548173ffffffffffffffffffffffffffffffffffffffff021916908373ffffffffffffffffffffffffffffffffffffffff1602179055506020820151816001019080519060200190610b32929190612e9c565b50604082015181600201556060820151816003019080519060200190610b59929190612e9c565b509050506001601060008673ffffffffffffffffffffffffffffffffffffffff1673ffffffffffffffffffffffffffffffffffffffff16815260200190815260200160002060006101000a81548160ff021916908315150217905550600e849080600181540180825580915050600190039060005260206000200160009091909190916101000a81548173ffffffffffffffffffffffffffffffffffffffff021916908373ffffffffffffffffffffffffffffffffffffffff160217905550610c3233600d600081548092919060010191905055611d3b565b7fd92317c269792912909aa02c9e5e6ebc0cdeb62fd04942b1314618e0f3241d6a338542604051610c65939291906134df565b60405180910390a150505050565b6000610c7f6002611f2f565b905090565b610c95610c8f611c7a565b82611f44565b610cea576040517f08c379a0000000000000000000000000000000000000000000000000000000008152600401808060200182810382526031815260200180613aac6031913960400191505060405180910390fd5b610cf5838383612038565b505050565b600f6020528060005260406000206000915090508060000160009054906101000a900473ffffffffffffffffffffffffffffffffffffffff1690806001018054600181600116156101000203166002900480601f016020809104026020016040519081016040528092919081815260200182805460018160011615610100020316600290048015610dcc5780601f10610da157610100808354040283529160200191610dcc565b820191906000526020600020905b815481529060010190602001808311610daf57829003601f168201915b505050505090806002015490806003018054600181600116156101000203166002900480601f016020809104026020016040519081016040528092919081815260200182805460018160011615610100020316600290048015610e705780601f10610e4557610100808354040283529160200191610e70565b820191906000526020600020905b815481529060010190602001808311610e5357829003601f168201915b5050505050905084565b6000610ecd82600160008673ffffffffffffffffffffffffffffffffffffffff1673ffffffffffffffffffffffffffffffffffffffff16815260200190815260200160002061227b90919063ffffffff16565b905092915050565b6060600060608373ffffffffffffffffffffffffffffffffffffffff163373ffffffffffffffffffffffffffffffffffffffff161480610f625750600a60009054906101000a900473ffffffffffffffffffffffffffffffffffffffff1673ffffffffffffffffffffffffffffffffffffffff163373ffffffffffffffffffffffffffffffffffffffff16145b610fa1576040517f08c379a0000000000000000000000000000000000000000000000000000000008152600401610f98906135eb565b60405180910390fd5b600f60008573ffffffffffffffffffffffffffffffffffffffff1673ffffffffffffffffffffffffffffffffffffffff168152602001908152602001600020600101600f60008673ffffffffffffffffffffffffffffffffffffffff1673ffffffffffffffffffffffffffffffffffffffff16815260200190815260200160002060020154600f60008773ffffffffffffffffffffffffffffffffffffffff1673ffffffffffffffffffffffffffffffffffffffff168152602001908152602001600020600301828054600181600116156101000203166002900480601f0160208091040260200160405190810160405280929190818152602001828054600181600116156101000203166002900480156110fd5780601f106110d2576101008083540402835291602001916110fd565b820191906000526020600020905b8154815290600101906020018083116110e057829003601f168201915b50505050509250808054600181600116156101000203166002900480601f0160208091040260200160405190810160405280929190818152602001828054600181600116156101000203166002900480156111995780601f1061116e57610100808354040283529160200191611199565b820191906000526020600020905b81548152906001019060200180831161117c57829003601f168201915b505050505090509250925092509193909250565b6111c883838360405180602001604052806000815250611850565b505050565b600c8054600181600116156101000203166002900480601f0160208091040260200160405190810160405280929190818152602001828054600181600116156101000203166002900480156112635780601f1061123857610100808354040283529160200191611263565b820191906000526020600020905b81548152906001019060200180831161124657829003601f168201915b505050505081565b60008061128283600261229590919063ffffffff16565b50905080915050919050565b600a60009054906101000a900473ffffffffffffffffffffffffffffffffffffffff1681565b60006112e4826040518060600160405280602981526020016139bc6029913960026122c19092919063ffffffff16565b9050919050565b600b5481565b606060098054600181600116156101000203166002900480601f0160208091040260200160405190810160405280929190818152602001828054600181600116156101000203166002900480156113895780601f1061135e57610100808354040283529160200191611389565b820191906000526020600020905b81548152906001019060200180831161136c57829003601f168201915b5050505050905090565b60008073ffffffffffffffffffffffffffffffffffffffff168273ffffffffffffffffffffffffffffffffffffffff16141561141a576040517f08c379a000000000000000000000000000000000000000000000000000000000815260040180806020018281038252602a815260200180613992602a913960400191505060405180910390fd5b611461600160008473ffffffffffffffffffffffffffffffffffffffff1673ffffffffffffffffffffffffffffffffffffffff1681526020019081526020016000206122e0565b9050919050565b600a60009054906101000a900473ffffffffffffffffffffffffffffffffffffffff168073ffffffffffffffffffffffffffffffffffffffff163373ffffffffffffffffffffffffffffffffffffffff16146114f9576040517f08c379a00000000000000000000000000000000000000000000000000000000081526004016114f09061362b565b60405180910390fd5b82600f60008673ffffffffffffffffffffffffffffffffffffffff1673ffffffffffffffffffffffffffffffffffffffff1681526020019081526020016000206002018190555081600f60008673ffffffffffffffffffffffffffffffffffffffff1673ffffffffffffffffffffffffffffffffffffffff1681526020019081526020016000206003019080519060200190611596929190612e9c565b507f56ffb0e4faf04f81431576e57b53e056003af48cf9a87b4c7b4dd6c40fe8a0023385426040516115ca939291906134df565b60405180910390a150505050565b60106020528060005260406000206000915054906101000a900460ff1681565b606060078054600181600116156101000203166002900480601f0160208091040260200160405190810160405280929190818152602001828054600181600116156101000203166002900480156116905780601f1061166557610100808354040283529160200191611690565b820191906000526020600020905b81548152906001019060200180831161167357829003601f168201915b5050505050905090565b6116a2611c7a565b73ffffffffffffffffffffffffffffffffffffffff168273ffffffffffffffffffffffffffffffffffffffff161415611743576040517f08c379a00000000000000000000000000000000000000000000000000000000081526004018080602001828103825260198152602001807f4552433732313a20617070726f766520746f2063616c6c65720000000000000081525060200191505060405180910390fd5b8060056000611750611c7a565b73ffffffffffffffffffffffffffffffffffffffff1673ffffffffffffffffffffffffffffffffffffffff16815260200190815260200160002060008473ffffffffffffffffffffffffffffffffffffffff1673ffffffffffffffffffffffffffffffffffffffff16815260200190815260200160002060006101000a81548160ff0219169083151502179055508173ffffffffffffffffffffffffffffffffffffffff166117fd611c7a565b73ffffffffffffffffffffffffffffffffffffffff167f17307eab39ab6107e8899845ad3d59bd9653f200f220920489ca2b5937696c318360405180821515815260200191505060405180910390a35050565b61186161185b611c7a565b83611f44565b6118b6576040517f08c379a0000000000000000000000000000000000000000000000000000000008152600401808060200182810382526031815260200180613aac6031913960400191505060405180910390fd5b6118c2848484846122f5565b50505050565b6000600a60009054906101000a900473ffffffffffffffffffffffffffffffffffffffff16905090565b60606118fd82611c5d565b611952576040517f08c379a000000000000000000000000000000000000000000000000000000000815260040180806020018281038252602f815260200180613a5c602f913960400191505060405180910390fd5b6000600860008481526020019081526020016000208054600181600116156101000203166002900480601f0160208091040260200160405190810160405280929190818152602001828054600181600116156101000203166002900480156119fb5780601f106119d0576101008083540402835291602001916119fb565b820191906000526020600020905b8154815290600101906020018083116119de57829003601f168201915b505050505090506000611a0c6112f1565b9050600081511415611a22578192505050611bbe565b600082511115611af35780826040516020018083805190602001908083835b60208310611a645780518252602082019150602081019050602083039250611a41565b6001836020036101000a03801982511681845116808217855250505050505090500182805190602001908083835b60208310611ab55780518252602082019150602081019050602083039250611a92565b6001836020036101000a0380198251168184511680821785525050505050509050019250505060405160208183030381529060405292505050611bbe565b80611afd85612367565b6040516020018083805190602001908083835b60208310611b335780518252602082019150602081019050602083039250611b10565b6001836020036101000a03801982511681845116808217855250505050505090500182805190602001908083835b60208310611b845780518252602082019150602081019050602083039250611b61565b6001836020036101000a03801982511681845116808217855250505050505090500192505050604051602081830303815290604052925050505b919050565b600d5481565b6000600560008473ffffffffffffffffffffffffffffffffffffffff1673ffffffffffffffffffffffffffffffffffffffff16815260200190815260200160002060008373ffffffffffffffffffffffffffffffffffffffff1673ffffffffffffffffffffffffffffffffffffffff16815260200190815260200160002060009054906101000a900460ff16905092915050565b6000611c738260026124ae90919063ffffffff16565b9050919050565b600033905090565b816004600083815260200190815260200160002060006101000a81548173ffffffffffffffffffffffffffffffffffffffff021916908373ffffffffffffffffffffffffffffffffffffffff160217905550808273ffffffffffffffffffffffffffffffffffffffff16611cf5836112b4565b73ffffffffffffffffffffffffffffffffffffffff167f8c5be1e5ebec7d5bd14f71427d1e84f3dd0314c0f7b2291e5b200ac8c7c3b92560405160405180910390a45050565b600073ffffffffffffffffffffffffffffffffffffffff168273ffffffffffffffffffffffffffffffffffffffff161415611dde576040517f08c379a00000000000000000000000000000000000000000000000000000000081526004018080602001828103825260208152602001807f4552433732313a206d696e7420746f20746865207a65726f206164647265737381525060200191505060405180910390fd5b611de781611c5d565b15611e5a576040517f08c379a000000000000000000000000000000000000000000000000000000000815260040180806020018281038252601c8152602001807f4552433732313a20746f6b656e20616c7265616479206d696e7465640000000081525060200191505060405180910390fd5b611e66600083836124c8565b611eb781600160008573ffffffffffffffffffffffffffffffffffffffff1673ffffffffffffffffffffffffffffffffffffffff1681526020019081526020016000206124cd90919063ffffffff16565b50611ece818360026124e79092919063ffffffff16565b50808273ffffffffffffffffffffffffffffffffffffffff16600073ffffffffffffffffffffffffffffffffffffffff167fddf252ad1be2c89b69c2b068fc378daa952ba7f163c4a11628f55a4df523b3ef60405160405180910390a45050565b6000611f3d8260000161251c565b9050919050565b6000611f4f82611c5d565b611fa4576040517f08c379a000000000000000000000000000000000000000000000000000000000815260040180806020018281038252602c81526020018061392e602c913960400191505060405180910390fd5b6000611faf836112b4565b90508073ffffffffffffffffffffffffffffffffffffffff168473ffffffffffffffffffffffffffffffffffffffff16148061201e57508373ffffffffffffffffffffffffffffffffffffffff1661200684610728565b73ffffffffffffffffffffffffffffffffffffffff16145b8061202f575061202e8185611bc9565b5b91505092915050565b8273ffffffffffffffffffffffffffffffffffffffff16612058826112b4565b73ffffffffffffffffffffffffffffffffffffffff16146120c4576040517f08c379a0000000000000000000000000000000000000000000000000000000008152600401808060200182810382526029815260200180613a336029913960400191505060405180910390fd5b600073ffffffffffffffffffffffffffffffffffffffff168273ffffffffffffffffffffffffffffffffffffffff16141561214a576040517f08c379a00000000000000000000000000000000000000000000000000000000081526004018080602001828103825260248152602001806138e46024913960400191505060405180910390fd5b6121558383836124c8565b612160600082611c82565b6121b181600160008673ffffffffffffffffffffffffffffffffffffffff1673ffffffffffffffffffffffffffffffffffffffff16815260200190815260200160002061252d90919063ffffffff16565b5061220381600160008573ffffffffffffffffffffffffffffffffffffffff1673ffffffffffffffffffffffffffffffffffffffff1681526020019081526020016000206124cd90919063ffffffff16565b5061221a818360026124e79092919063ffffffff16565b50808273ffffffffffffffffffffffffffffffffffffffff168473ffffffffffffffffffffffffffffffffffffffff167fddf252ad1be2c89b69c2b068fc378daa952ba7f163c4a11628f55a4df523b3ef60405160405180910390a4505050565b600061228a8360000183612547565b60001c905092915050565b6000806000806122a886600001866125ca565b915091508160001c8160001c9350935050509250929050565b60006122d4846000018460001b84612663565b60001c90509392505050565b60006122ee82600001612759565b9050919050565b612300848484612038565b61230c8484848461276a565b612361576040517f08c379a00000000000000000000000000000000000000000000000000000000081526004018080602001828103825260328152602001806138b26032913960400191505060405180910390fd5b50505050565b606060008214156123af576040518060400160405280600181526020017f300000000000000000000000000000000000000000000000000000000000000081525090506124a9565b600082905060005b600082146123d9578080600101915050600a82816123d157fe5b0491506123b7565b60008167ffffffffffffffff811180156123f257600080fd5b506040519080825280601f01601f1916602001820160405280156124255781602001600182028036833780820191505090505b50905060006001830390508593505b600084146124a157600a848161244657fe5b0660300160f81b8282806001900393508151811061246057fe5b60200101907effffffffffffffffffffffffffffffffffffffffffffffffffffffffffffff1916908160001a905350600a848161249957fe5b049350612434565b819450505050505b919050565b60006124c0836000018360001b612983565b905092915050565b505050565b60006124df836000018360001b6129a6565b905092915050565b6000612513846000018460001b8473ffffffffffffffffffffffffffffffffffffffff1660001b612a16565b90509392505050565b600081600001805490509050919050565b600061253f836000018360001b612af2565b905092915050565b6000818360000180549050116125a8576040517f08c379a00000000000000000000000000000000000000000000000000000000081526004018080602001828103825260228152602001806138906022913960400191505060405180910390fd5b8260000182815481106125b757fe5b9060005260206000200154905092915050565b6000808284600001805490501161262c576040517f08c379a00000000000000000000000000000000000000000000000000000000081526004018080602001828103825260228152602001806139e56022913960400191505060405180910390fd5b600084600001848154811061263d57fe5b906000526020600020906002020190508060000154816001015492509250509250929050565b6000808460010160008581526020019081526020016000205490506000811415839061272a576040517f08c379a00000000000000000000000000000000000000000000000000000000081526004018080602001828103825283818151815260200191508051906020019080838360005b838110156126ef5780820151818401526020810190506126d4565b50505050905090810190601f16801561271c5780820380516001836020036101000a031916815260200191505b509250505060405180910390fd5b5084600001600182038154811061273d57fe5b9060005260206000209060020201600101549150509392505050565b600081600001805490509050919050565b600061278b8473ffffffffffffffffffffffffffffffffffffffff16612bda565b612798576001905061297b565b600061290263150b7a0260e01b6127ad611c7a565b888787604051602401808573ffffffffffffffffffffffffffffffffffffffff1681526020018473ffffffffffffffffffffffffffffffffffffffff16815260200183815260200180602001828103825283818151815260200191508051906020019080838360005b83811015612831578082015181840152602081019050612816565b50505050905090810190601f16801561285e5780820380516001836020036101000a031916815260200191505b5095505050505050604051602081830303815290604052907bffffffffffffffffffffffffffffffffffffffffffffffffffffffff19166020820180517bffffffffffffffffffffffffffffffffffffffffffffffffffffffff83818316178352505050506040518060600160405280603281526020016138b2603291398773ffffffffffffffffffffffffffffffffffffffff16612bed9092919063ffffffff16565b9050600081806020019051602081101561291b57600080fd5b8101908080519060200190929190505050905063150b7a0260e01b7bffffffffffffffffffffffffffffffffffffffffffffffffffffffff1916817bffffffffffffffffffffffffffffffffffffffffffffffffffffffff191614925050505b949350505050565b600080836001016000848152602001908152602001600020541415905092915050565b60006129b28383612c05565b612a0b578260000182908060018154018082558091505060019003906000526020600020016000909190919091505582600001805490508360010160008481526020019081526020016000208190555060019050612a10565b600090505b92915050565b6000808460010160008581526020019081526020016000205490506000811415612abd57846000016040518060400160405280868152602001858152509080600181540180825580915050600190039060005260206000209060020201600090919091909150600082015181600001556020820151816001015550508460000180549050856001016000868152602001908152602001600020819055506001915050612aeb565b82856000016001830381548110612ad057fe5b90600052602060002090600202016001018190555060009150505b9392505050565b60008083600101600084815260200190815260200160002054905060008114612bce5760006001820390506000600186600001805490500390506000866000018281548110612b3d57fe5b9060005260206000200154905080876000018481548110612b5a57fe5b9060005260206000200181905550600183018760010160008381526020019081526020016000208190555086600001805480612b9257fe5b60019003818190600052602060002001600090559055866001016000878152602001908152602001600020600090556001945050505050612bd4565b60009150505b92915050565b600080823b905060008111915050919050565b6060612bfc8484600085612c28565b90509392505050565b600080836001016000848152602001908152602001600020541415905092915050565b606082471015612c83576040517f08c379a00000000000000000000000000000000000000000000000000000000081526004018080602001828103825260268152602001806139086026913960400191505060405180910390fd5b612c8c85612bda565b612cfe576040517f08c379a000000000000000000000000000000000000000000000000000000000815260040180806020018281038252601d8152602001807f416464726573733a2063616c6c20746f206e6f6e2d636f6e747261637400000081525060200191505060405180910390fd5b6000808673ffffffffffffffffffffffffffffffffffffffff1685876040518082805190602001908083835b60208310612d4d5780518252602082019150602081019050602083039250612d2a565b6001836020036101000a03801982511681845116808217855250505050505090500191505060006040518083038185875af1925050503d8060008114612daf576040519150601f19603f3d011682016040523d82523d6000602084013e612db4565b606091505b5091509150612dc4828286612dd0565b92505050949350505050565b60608315612de057829050612e95565b600083511115612df35782518084602001fd5b816040517f08c379a00000000000000000000000000000000000000000000000000000000081526004018080602001828103825283818151815260200191508051906020019080838360005b83811015612e5a578082015181840152602081019050612e3f565b50505050905090810190601f168015612e875780820380516001836020036101000a031916815260200191505b509250505060405180910390fd5b9392505050565b828054600181600116156101000203166002900490600052602060002090601f016020900481019282612ed25760008555612f19565b82601f10612eeb57805160ff1916838001178555612f19565b82800160010185558215612f19579182015b82811115612f18578251825591602001919060010190612efd565b5b509050612f269190612f2a565b5090565b5b80821115612f43576000816000905550600101612f2b565b5090565b6000612f5a612f5584613697565b613666565b905082815260208101848484011115612f7257600080fd5b612f7d8482856137c7565b509392505050565b6000612f98612f93846136c7565b613666565b905082815260208101848484011115612fb057600080fd5b612fbb8482856137c7565b509392505050565b600081359050612fd28161381c565b92915050565b600081359050612fe781613833565b92915050565b600081359050612ffc8161384a565b92915050565b600082601f83011261301357600080fd5b8135613023848260208601612f47565b91505092915050565b60008135905061303b81613861565b92915050565b600082601f83011261305257600080fd5b8135613062848260208601612f85565b91505092915050565b60008135905061307a81613878565b92915050565b60006020828403121561309257600080fd5b60006130a084828501612fc3565b91505092915050565b600080604083850312156130bc57600080fd5b60006130ca85828601612fc3565b92505060206130db85828601612fc3565b9150509250929050565b6000806000606084860312156130fa57600080fd5b600061310886828701612fc3565b935050602061311986828701612fc3565b925050604061312a8682870161306b565b9150509250925092565b6000806000806080858703121561314a57600080fd5b600061315887828801612fc3565b945050602061316987828801612fc3565b935050604061317a8782880161306b565b925050606085013567ffffffffffffffff81111561319757600080fd5b6131a387828801613002565b91505092959194509250565b600080604083850312156131c257600080fd5b60006131d085828601612fc3565b92505060206131e185828601612fd8565b9150509250929050565b60008060006060848603121561320057600080fd5b600061320e86828701612fc3565b935050602061321f8682870161302c565b925050604084013567ffffffffffffffff81111561323c57600080fd5b61324886828701613041565b9150509250925092565b6000806040838503121561326557600080fd5b600061327385828601612fc3565b925050602083013567ffffffffffffffff81111561329057600080fd5b61329c85828601613041565b9150509250929050565b600080604083850312156132b957600080fd5b60006132c785828601612fc3565b92505060206132d88582860161306b565b9150509250929050565b6000602082840312156132f457600080fd5b600061330284828501612fed565b91505092915050565b60006020828403121561331d57600080fd5b600061332b8482850161306b565b91505092915050565b61333d81613791565b82525050565b61334c81613713565b82525050565b61335b81613725565b82525050565b61336a8161375d565b82525050565b600061337b826136f7565b6133858185613702565b93506133958185602086016137d6565b61339e8161380b565b840191505092915050565b60006133b6602d83613702565b91507f596f75277265206e6f7420617574686f72697a656420746f206765742074686960008301527f7320696e666f726d6174696f6e000000000000000000000000000000000000006020830152604082019050919050565b600061341c603183613702565b91507f546869732073747564656e7420697320616c726561647920726567697374657260008301527f656420696e207468697320636f757273650000000000000000000000000000006020830152604082019050919050565b6000613482601683613702565b91507f53656e646572206e6f7420617574686f72697a65642e000000000000000000006000830152602082019050919050565b6134be81613787565b82525050565b60006020820190506134d96000830184613343565b92915050565b60006060820190506134f46000830186613334565b6135016020830185613343565b61350e60408301846134b5565b949350505050565b600060808201905061352b6000830187613343565b818103602083015261353d8186613370565b905061354c6040830185613361565b818103606083015261355e8184613370565b905095945050505050565b600060208201905061357e6000830184613352565b92915050565b6000602082019050818103600083015261359e8184613370565b905092915050565b600060608201905081810360008301526135c08186613370565b90506135cf6020830185613361565b81810360408301526135e18184613370565b9050949350505050565b60006020820190508181036000830152613604816133a9565b9050919050565b600060208201905081810360008301526136248161340f565b9050919050565b6000602082019050818103600083015261364481613475565b9050919050565b600060208201905061366060008301846134b5565b92915050565b6000604051905081810181811067ffffffffffffffff8211171561368d5761368c613809565b5b8060405250919050565b600067ffffffffffffffff8211156136b2576136b1613809565b5b601f19601f8301169050602081019050919050565b600067ffffffffffffffff8211156136e2576136e1613809565b5b601f19601f8301169050602081019050919050565b600081519050919050565b600082825260208201905092915050565b600061371e82613767565b9050919050565b60008115159050919050565b60007fffffffff0000000000000000000000000000000000000000000000000000000082169050919050565b6000819050919050565b600073ffffffffffffffffffffffffffffffffffffffff82169050919050565b6000819050919050565b600061379c826137a3565b9050919050565b60006137ae826137b5565b9050919050565b60006137c082613767565b9050919050565b82818337600083830152505050565b60005b838110156137f45780820151818401526020810190506137d9565b83811115613803576000848401525b50505050565bfe5b6000601f19601f8301169050919050565b61382581613713565b811461383057600080fd5b50565b61383c81613725565b811461384757600080fd5b50565b61385381613731565b811461385e57600080fd5b50565b61386a8161375d565b811461387557600080fd5b50565b61388181613787565b811461388c57600080fd5b5056fe456e756d657261626c655365743a20696e646578206f7574206f6620626f756e64734552433732313a207472616e7366657220746f206e6f6e20455243373231526563656976657220696d706c656d656e7465724552433732313a207472616e7366657220746f20746865207a65726f2061646472657373416464726573733a20696e73756666696369656e742062616c616e636520666f722063616c6c4552433732313a206f70657261746f7220717565727920666f72206e6f6e6578697374656e7420746f6b656e4552433732313a20617070726f76652063616c6c6572206973206e6f74206f776e6572206e6f7220617070726f76656420666f7220616c6c4552433732313a2062616c616e636520717565727920666f7220746865207a65726f20616464726573734552433732313a206f776e657220717565727920666f72206e6f6e6578697374656e7420746f6b656e456e756d657261626c654d61703a20696e646578206f7574206f6620626f756e64734552433732313a20617070726f76656420717565727920666f72206e6f6e6578697374656e7420746f6b656e4552433732313a207472616e73666572206f6620746f6b656e2074686174206973206e6f74206f776e4552433732314d657461646174613a2055524920717565727920666f72206e6f6e6578697374656e7420746f6b656e4552433732313a20617070726f76616c20746f2063757272656e74206f776e65724552433732313a207472616e736665722063616c6c6572206973206e6f74206f776e6572206e6f7220617070726f766564a2646970667358221220e8247e409c306967dc11b780590f25ca6c61c349a700294cbedd0dce3c60867f64736f6c63430007060033",
  "immutableReferences": {},
  "source": "pragma solidity >0.7.4;\npragma experimental ABIEncoderV2;\n\nimport \"@openzeppelin/contracts/token/ERC721/ERC721.sol\";\n\ncontract Course is ERC721 {\n    // Vars\n    address public professor;\n    uint256 public nbStudents;\n    string public title;\n\n\n    // Counters\n    uint256 public studentCounter;\n\n    // Mappings\n    address[] public students;\n    mapping(address => Student) public __students;\n    mapping(address => bool) public __studentExists;\n\n    // Student Struct\n    struct Student {\n        // Mandatory\n        address id;\n        string name;\n        int grade;\n\n        // Optional\n        string comment;\n    }\n\n\n    constructor() ERC721(\"course\", \"COURSE\") {\n        professor = msg.sender;\n        nbStudents = 0;\n        studentCounter = 0;\n        title = \"Mathematiques\";\n    }\n\n    modifier onlyBy(address _account)\n    {\n        require(\n            msg.sender == _account,\n            \"Sender not authorized.\"\n        );\n        _;\n    }\n\n    event studentAdded(address professor, address student, uint256 timestamp);\n    event studentAssessed(address professor, address student, uint256 timestamp);\n\n    function registerStudent(address _studentId, string memory _name) public onlyBy(professor) {\n        // Student must be unique\n        require(!__studentExists[_studentId], \"This student is already registered in this course\");\n\n        // Init student \n        Student memory newStudent = Student(_studentId, _name, -1, \"\");\n\n        // Setup\n        __students[_studentId] = newStudent;\n        __studentExists[_studentId] = true;\n        students.push(_studentId);\n        _mint(msg.sender, studentCounter++);\n        emit studentAdded(msg.sender, _studentId, block.timestamp);\n    }\n\n    function assessStudent(address _studentId, int _grade, string memory _comment) public onlyBy(professor) {\n        __students[_studentId].grade = _grade;\n        __students[_studentId].comment = _comment;\n        emit studentAssessed(msg.sender, _studentId, block.timestamp);\n    }\n\n    function getGrade(address _studentId) public view returns(string memory, int, string memory) {\n        require(msg.sender == _studentId || msg.sender == professor, \"You're not authorized to get this information\");\n        return (\n            __students[_studentId].name,\n            __students[_studentId].grade,\n            __students[_studentId].comment\n        );\n    }\n\n    function getProfessor() public view returns (address) {\n        return professor;\n    }\n}",
  "sourcePath": "/home/matisse/Documents/supinfo/5bloc-front-app/src/contracts/Course.sol",
  "compiler": {
    "name": "solc",
    "version": "0.7.6+commit.7338295f.Emscripten.clang"
  },
  "schemaVersion": "3.3.4",
  "updatedAt": "2021-04-15T15:33:06.677Z",
  "networkType": "ethereum",
  "devdoc": {
    "kind": "dev",
    "methods": {
      "approve(address,uint256)": {
        "details": "See {IERC721-approve}."
      },
      "balanceOf(address)": {
        "details": "See {IERC721-balanceOf}."
      },
      "baseURI()": {
        "details": "Returns the base URI set via {_setBaseURI}. This will be automatically added as a prefix in {tokenURI} to each token's URI, or to the token ID if no specific URI is set for that token ID."
      },
      "getApproved(uint256)": {
        "details": "See {IERC721-getApproved}."
      },
      "isApprovedForAll(address,address)": {
        "details": "See {IERC721-isApprovedForAll}."
      },
      "name()": {
        "details": "See {IERC721Metadata-name}."
      },
      "ownerOf(uint256)": {
        "details": "See {IERC721-ownerOf}."
      },
      "safeTransferFrom(address,address,uint256)": {
        "details": "See {IERC721-safeTransferFrom}."
      },
      "safeTransferFrom(address,address,uint256,bytes)": {
        "details": "See {IERC721-safeTransferFrom}."
      },
      "setApprovalForAll(address,bool)": {
        "details": "See {IERC721-setApprovalForAll}."
      },
      "supportsInterface(bytes4)": {
        "details": "See {IERC165-supportsInterface}. Time complexity O(1), guaranteed to always use less than 30 000 gas."
      },
      "symbol()": {
        "details": "See {IERC721Metadata-symbol}."
      },
      "tokenByIndex(uint256)": {
        "details": "See {IERC721Enumerable-tokenByIndex}."
      },
      "tokenOfOwnerByIndex(address,uint256)": {
        "details": "See {IERC721Enumerable-tokenOfOwnerByIndex}."
      },
      "tokenURI(uint256)": {
        "details": "See {IERC721Metadata-tokenURI}."
      },
      "totalSupply()": {
        "details": "See {IERC721Enumerable-totalSupply}."
      },
      "transferFrom(address,address,uint256)": {
        "details": "See {IERC721-transferFrom}."
      }
    },
    "version": 1
  },
  "userdoc": {
    "kind": "user",
    "methods": {},
    "version": 1
  }
}